{"contracts/eventos.sol":{"eventos":{"abi":[{"inputs":[{"internalType":"uint256","name":"id_evento","type":"uint256"}],"name":"comprarBoleto","outputs":[],"stateMutability":"payable","type":"function"},{"inputs":[{"internalType":"uint256","name":"boletosACrear","type":"uint256"},{"internalType":"string","name":"nombreEvento","type":"string"},{"internalType":"uint256","name":"fechaEvento","type":"uint256"},{"internalType":"uint256","name":"precioBoleto","type":"uint256"}],"name":"crearEvento","outputs":[],"stateMutability":"payable","type":"function"},{"inputs":[],"name":"geEventosActivos","outputs":[{"internalType":"uint256[]","name":"","type":"uint256[]"}],"stateMutability":"view","type":"function"},{"inputs":[],"name":"geEventosActivos1","outputs":[{"components":[{"internalType":"uint256","name":"identificadorEvento","type":"uint256"},{"internalType":"address","name":"organizador","type":"address"},{"internalType":"string","name":"nombreEvento","type":"string"},{"internalType":"uint256","name":"fechaEvento","type":"uint256"},{"internalType":"uint256","name":"ticketsDisponibles","type":"uint256"},{"internalType":"uint256","name":"precioBoleto","type":"uint256"}],"internalType":"struct eventos.Evento[]","name":"","type":"tuple[]"}],"stateMutability":"view","type":"function"},{"inputs":[],"name":"getBoletosCompradosPorUsuario","outputs":[{"internalType":"string[]","name":"","type":"string[]"}],"stateMutability":"view","type":"function"},{"inputs":[],"name":"getBoletosCompradosPorUsuarioContador","outputs":[{"internalType":"uint256","name":"","type":"uint256"}],"stateMutability":"view","type":"function"},{"inputs":[{"internalType":"uint256","name":"id_evento","type":"uint256"}],"name":"getBoletosRestantesDelEvento","outputs":[{"internalType":"uint256","name":"","type":"uint256"}],"stateMutability":"view","type":"function"},{"inputs":[{"internalType":"uint256","name":"id_evento","type":"uint256"}],"name":"getBoletosRestantesPorUsuario","outputs":[{"internalType":"uint256","name":"","type":"uint256"}],"stateMutability":"view","type":"function"},{"inputs":[],"name":"getCantidadEventos","outputs":[{"internalType":"uint256","name":"","type":"uint256"}],"stateMutability":"view","type":"function"},{"inputs":[],"name":"getCantidadEventosActivos","outputs":[{"internalType":"uint256","name":"","type":"uint256"}],"stateMutability":"view","type":"function"},{"inputs":[{"internalType":"uint256","name":"evento_id","type":"uint256"}],"name":"getDescripcionDeEvento","outputs":[{"internalType":"string","name":"","type":"string"}],"stateMutability":"view","type":"function"},{"inputs":[],"name":"getTodosLosEventos","outputs":[{"internalType":"uint256[]","name":"","type":"uint256[]"}],"stateMutability":"view","type":"function"}],"evm":{"bytecode":{"linkReferences":{},"object":"608060405234801561001057600080fd5b50611ee0806100206000396000f3fe6080604052600436106100a75760003560e01c80637f30e11c116100645780637f30e11c146101d2578063cdab3012146101ee578063d25c7fdf14610219578063d51da6d114610244578063dc8d7c4d14610260578063e749f75c1461029d576100a7565b806318db3db6146100ac578063301e4ab9146100d75780635d9b5b111461010257806361aa38361461013f5780636ecbdf671461016a5780637b7b56bd14610195575b600080fd5b3480156100b857600080fd5b506100c16102c8565b6040516100ce919061102d565b60405180910390f35b3480156100e357600080fd5b506100ec610335565b6040516100f9919061119a565b60405180910390f35b34801561010e57600080fd5b50610129600480360381019061012491906111fc565b61053b565b604051610136919061102d565b60405180910390f35b34801561014b57600080fd5b50610154610634565b604051610161919061102d565b60405180910390f35b34801561017657600080fd5b5061017f610641565b60405161018c91906113c4565b60405180910390f35b3480156101a157600080fd5b506101bc60048036038101906101b791906111fc565b610863565b6040516101c9919061102d565b60405180910390f35b6101ec60048036038101906101e791906111fc565b610892565b005b3480156101fa57600080fd5b506102036109b4565b6040516102109190611495565b60405180910390f35b34801561022557600080fd5b5061022e610a92565b60405161023b919061102d565b60405180910390f35b61025e600480360381019061025991906115ec565b610b4c565b005b34801561026c57600080fd5b50610287600480360381019061028291906111fc565b610c8e565b60405161029491906116b9565b60405180910390f35b3480156102a957600080fd5b506102b2610d68565b6040516102bf9190611495565b60405180910390f35b6000806000905060005b60018054905081101561032d5742600182815481106102f4576102f36116db565b5b9060005260206000209060060201600301541061031a57818061031690611739565b9250505b808061032590611739565b9150506102d2565b508091505090565b60606000610341610a92565b905060008167ffffffffffffffff81111561035f5761035e6114c1565b5b60405190808252806020026020018201604052801561039257816020015b606081526020019060019003908161037d5790505b5090506000805b600080549050811015610531573373ffffffffffffffffffffffffffffffffffffffff16600082815481106103d1576103d06116db565b5b906000526020600020906003020160020160009054906101000a900473ffffffffffffffffffffffffffffffffffffffff1673ffffffffffffffffffffffffffffffffffffffff160361051e57600160008281548110610434576104336116db565b5b90600052602060002090600302016001015481548110610457576104566116db565b5b90600052602060002090600602016002018054610473906117b0565b80601f016020809104026020016040519081016040528092919081815260200182805461049f906117b0565b80156104ec5780601f106104c1576101008083540402835291602001916104ec565b820191906000526020600020905b8154815290600101906020018083116104cf57829003601f168201915b5050505050838381518110610504576105036116db565b5b6020026020010181905250818061051a90611739565b9250505b808061052990611739565b915050610399565b5081935050505090565b6000806000905060005b60008054905081101561061e573373ffffffffffffffffffffffffffffffffffffffff166000828154811061057d5761057c6116db565b5b906000526020600020906003020160020160009054906101000a900473ffffffffffffffffffffffffffffffffffffffff1673ffffffffffffffffffffffffffffffffffffffff161480156105f65750600081815481106105e1576105e06116db565b5b90600052602060002090600302016001015484145b1561060b5760018261060891906117e1565b91505b808061061690611739565b915050610545565b5080600361062c9190611815565b915050919050565b6000600180549050905090565b6060600060018054905067ffffffffffffffff811115610664576106636114c1565b5b60405190808252806020026020018201604052801561069d57816020015b61068a610f91565b8152602001906001900390816106825790505b5090506000805b60018054905081101561085a5742600182815481106106c6576106c56116db565b5b9060005260206000209060060201600301541061084757600181815481106106f1576106f06116db565b5b90600052602060002090600602016040518060c0016040529081600082015481526020016001820160009054906101000a900473ffffffffffffffffffffffffffffffffffffffff1673ffffffffffffffffffffffffffffffffffffffff1673ffffffffffffffffffffffffffffffffffffffff16815260200160028201805461077a906117b0565b80601f01602080910402602001604051908101604052809291908181526020018280546107a6906117b0565b80156107f35780601f106107c8576101008083540402835291602001916107f3565b820191906000526020600020905b8154815290600101906020018083116107d657829003601f168201915b50505050508152602001600382015481526020016004820154815260200160058201548152505083838151811061082d5761082c6116db565b5b6020026020010181905250818061084390611739565b9250505b808061085290611739565b9150506106a4565b50819250505090565b600060018281548110610879576108786116db565b5b9060005260206000209060060201600401549050919050565b61089a610fdd565b6000805490508160000181815250508181602001818152505033816040019073ffffffffffffffffffffffffffffffffffffffff16908173ffffffffffffffffffffffffffffffffffffffff16815250506000819080600181540180825580915050600190039060005260206000209060030201600090919091909150600082015181600001556020820151816001015560408201518160020160006101000a81548173ffffffffffffffffffffffffffffffffffffffff021916908373ffffffffffffffffffffffffffffffffffffffff16021790555050506001808381548110610989576109886116db565b5b906000526020600020906006020160040160008282546109a99190611815565b925050819055505050565b606060006109c06102c8565b67ffffffffffffffff8111156109d9576109d86114c1565b5b604051908082528060200260200182016040528015610a075781602001602082028036833780820191505090505b5090506000805b600180549050811015610a89574260018281548110610a3057610a2f6116db565b5b90600052602060002090600602016003015410610a765780838381518110610a5b57610a5a6116db565b5b6020026020010181815250508180610a7290611739565b9250505b8080610a8190611739565b915050610a0e565b50819250505090565b6000806000905060005b600080549050811015610b44573373ffffffffffffffffffffffffffffffffffffffff1660008281548110610ad457610ad36116db565b5b906000526020600020906003020160020160009054906101000a900473ffffffffffffffffffffffffffffffffffffffff1673ffffffffffffffffffffffffffffffffffffffff1603610b3157600182610b2e91906117e1565b91505b8080610b3c90611739565b915050610a9c565b508091505090565b34846000821015610b5c57600080fd5b610b64610f91565b60018054905081600001818152505033816020019073ffffffffffffffffffffffffffffffffffffffff16908173ffffffffffffffffffffffffffffffffffffffff16815250508581604001819052508481606001818152505086816080018181525050838160a001818152505060018190806001815401808255809150506001900390600052602060002090600602016000909190919091506000820151816000015560208201518160010160006101000a81548173ffffffffffffffffffffffffffffffffffffffff021916908373ffffffffffffffffffffffffffffffffffffffff1602179055506040820151816002019081610c6491906119f5565b50606082015181600301556080820151816004015560a08201518160050155505050505050505050565b606060018281548110610ca457610ca36116db565b5b9060005260206000209060060201600201610ce360018481548110610ccc57610ccb6116db565b5b906000526020600020906006020160030154610e09565b610d1160018581548110610cfa57610cf96116db565b5b906000526020600020906006020160040154610e09565b610d3f60018681548110610d2857610d276116db565b5b906000526020600020906006020160050154610e09565b604051602001610d529493929190611cb6565b6040516020818303038152906040529050919050565b60606000610d746102c8565b67ffffffffffffffff811115610d8d57610d8c6114c1565b5b604051908082528060200260200182016040528015610dbb5781602001602082028036833780820191505090505b50905060005b600180549050811015610e015780828281518110610de257610de16116db565b5b6020026020010181815250508080610df990611739565b915050610dc1565b508091505090565b606060008203610e50576040518060400160405280600181526020017f30000000000000000000000000000000000000000000000000000000000000008152509050610f8c565b600082905060005b60008214610e82578080610e6b90611739565b915050600a82610e7b9190611df5565b9150610e58565b60008167ffffffffffffffff811115610e9e57610e9d6114c1565b5b6040519080825280601f01601f191660200182016040528015610ed05781602001600182028036833780820191505090505b50905060008290505b60008614610f8457600181610eee9190611815565b90506000600a8088610f009190611df5565b610f0a9190611e26565b87610f159190611815565b6030610f219190611e75565b905060008160f81b905080848481518110610f3f57610f3e6116db565b5b60200101907effffffffffffffffffffffffffffffffffffffffffffffffffffffffffffff1916908160001a905350600a88610f7b9190611df5565b97505050610ed9565b819450505050505b919050565b6040518060c0016040528060008152602001600073ffffffffffffffffffffffffffffffffffffffff168152602001606081526020016000815260200160008152602001600081525090565b60405180606001604052806000815260200160008152602001600073ffffffffffffffffffffffffffffffffffffffff1681525090565b6000819050919050565b61102781611014565b82525050565b6000602082019050611042600083018461101e565b92915050565b600081519050919050565b600082825260208201905092915050565b6000819050602082019050919050565b600081519050919050565b600082825260208201905092915050565b60005b838110156110ae578082015181840152602081019050611093565b60008484015250505050565b6000601f19601f8301169050919050565b60006110d682611074565b6110e0818561107f565b93506110f0818560208601611090565b6110f9816110ba565b840191505092915050565b600061111083836110cb565b905092915050565b6000602082019050919050565b600061113082611048565b61113a8185611053565b93508360208202850161114c85611064565b8060005b8581101561118857848403895281516111698582611104565b945061117483611118565b925060208a01995050600181019050611150565b50829750879550505050505092915050565b600060208201905081810360008301526111b48184611125565b905092915050565b6000604051905090565b600080fd5b600080fd5b6111d981611014565b81146111e457600080fd5b50565b6000813590506111f6816111d0565b92915050565b600060208284031215611212576112116111c6565b5b6000611220848285016111e7565b91505092915050565b600081519050919050565b600082825260208201905092915050565b6000819050602082019050919050565b61125e81611014565b82525050565b600073ffffffffffffffffffffffffffffffffffffffff82169050919050565b600061128f82611264565b9050919050565b61129f81611284565b82525050565b600060c0830160008301516112bd6000860182611255565b5060208301516112d06020860182611296565b50604083015184820360408601526112e882826110cb565b91505060608301516112fd6060860182611255565b5060808301516113106080860182611255565b5060a083015161132360a0860182611255565b508091505092915050565b600061133a83836112a5565b905092915050565b6000602082019050919050565b600061135a82611229565b6113648185611234565b93508360208202850161137685611245565b8060005b858110156113b25784840389528151611393858261132e565b945061139e83611342565b925060208a0199505060018101905061137a565b50829750879550505050505092915050565b600060208201905081810360008301526113de818461134f565b905092915050565b600081519050919050565b600082825260208201905092915050565b6000819050602082019050919050565b600061141e8383611255565b60208301905092915050565b6000602082019050919050565b6000611442826113e6565b61144c81856113f1565b935061145783611402565b8060005b8381101561148857815161146f8882611412565b975061147a8361142a565b92505060018101905061145b565b5085935050505092915050565b600060208201905081810360008301526114af8184611437565b905092915050565b600080fd5b600080fd5b7f4e487b7100000000000000000000000000000000000000000000000000000000600052604160045260246000fd5b6114f9826110ba565b810181811067ffffffffffffffff82111715611518576115176114c1565b5b80604052505050565b600061152b6111bc565b905061153782826114f0565b919050565b600067ffffffffffffffff821115611557576115566114c1565b5b611560826110ba565b9050602081019050919050565b82818337600083830152505050565b600061158f61158a8461153c565b611521565b9050828152602081018484840111156115ab576115aa6114bc565b5b6115b684828561156d565b509392505050565b600082601f8301126115d3576115d26114b7565b5b81356115e384826020860161157c565b91505092915050565b60008060008060808587031215611606576116056111c6565b5b6000611614878288016111e7565b945050602085013567ffffffffffffffff811115611635576116346111cb565b5b611641878288016115be565b9350506040611652878288016111e7565b9250506060611663878288016111e7565b91505092959194509250565b600082825260208201905092915050565b600061168b82611074565b611695818561166f565b93506116a5818560208601611090565b6116ae816110ba565b840191505092915050565b600060208201905081810360008301526116d38184611680565b905092915050565b7f4e487b7100000000000000000000000000000000000000000000000000000000600052603260045260246000fd5b7f4e487b7100000000000000000000000000000000000000000000000000000000600052601160045260246000fd5b600061174482611014565b91507fffffffffffffffffffffffffffffffffffffffffffffffffffffffffffffffff82036117765761177561170a565b5b600182019050919050565b7f4e487b7100000000000000000000000000000000000000000000000000000000600052602260045260246000fd5b600060028204905060018216806117c857607f821691505b6020821081036117db576117da611781565b5b50919050565b60006117ec82611014565b91506117f783611014565b925082820190508082111561180f5761180e61170a565b5b92915050565b600061182082611014565b915061182b83611014565b92508282039050818111156118435761184261170a565b5b92915050565b60008190508160005260206000209050919050565b60006020601f8301049050919050565b600082821b905092915050565b6000600883026118ab7fffffffffffffffffffffffffffffffffffffffffffffffffffffffffffffffff8261186e565b6118b5868361186e565b95508019841693508086168417925050509392505050565b6000819050919050565b60006118f26118ed6118e884611014565b6118cd565b611014565b9050919050565b6000819050919050565b61190c836118d7565b611920611918826118f9565b84845461187b565b825550505050565b600090565b611935611928565b611940818484611903565b505050565b5b818110156119645761195960008261192d565b600181019050611946565b5050565b601f8211156119a95761197a81611849565b6119838461185e565b81016020851015611992578190505b6119a661199e8561185e565b830182611945565b50505b505050565b600082821c905092915050565b60006119cc600019846008026119ae565b1980831691505092915050565b60006119e583836119bb565b9150826002028217905092915050565b6119fe82611074565b67ffffffffffffffff811115611a1757611a166114c1565b5b611a2182546117b0565b611a2c828285611968565b600060209050601f831160018114611a5f5760008415611a4d578287015190505b611a5785826119d9565b865550611abf565b601f198416611a6d86611849565b60005b82811015611a9557848901518255600182019150602085019450602081019050611a70565b86831015611ab25784890151611aae601f8916826119bb565b8355505b6001600288020188555050505b505050505050565b7f7b00000000000000000000000000000000000000000000000000000000000000815250565b7f276e6f6d6272654576656e746f273a2000000000000000000000000000000000815250565b7f2027000000000000000000000000000000000000000000000000000000000000815250565b600081905092915050565b60008154611b51816117b0565b611b5b8186611b39565b94506001821660008114611b765760018114611b8b57611bbe565b60ff1983168652811515820286019350611bbe565b611b9485611849565b60005b83811015611bb657815481890152600182019150602081019050611b97565b838801955050505b50505092915050565b7f272c000000000000000000000000000000000000000000000000000000000000815250565b7f2766656368614576656e746f273a200000000000000000000000000000000000815250565b6000611c1e82611074565b611c288185611b39565b9350611c38818560208601611090565b80840191505092915050565b7f277469636b657473446973706f6e69626c6573273a2000000000000000000000815250565b7f2770726563696f426f6c65746f273a2000000000000000000000000000000000815250565b7f7d00000000000000000000000000000000000000000000000000000000000000815250565b6000611cc182611ac7565b600182019150611cd082611aed565b601082019150611cdf82611b13565b600282019150611cef8287611b44565b9150611cfa82611bc7565b600282019150611d0982611bed565b600f82019150611d1882611b13565b600282019150611d288286611c13565b9150611d3382611bc7565b600282019150611d4282611c44565b601682019150611d5182611b13565b600282019150611d618285611c13565b9150611d6c82611bc7565b600282019150611d7b82611c6a565b601082019150611d8a82611b13565b600282019150611d9a8284611c13565b9150611da582611bc7565b600282019150611db482611c90565b60018201915081905095945050505050565b7f4e487b7100000000000000000000000000000000000000000000000000000000600052601260045260246000fd5b6000611e0082611014565b9150611e0b83611014565b925082611e1b57611e1a611dc6565b5b828204905092915050565b6000611e3182611014565b9150611e3c83611014565b9250828202611e4a81611014565b91508282048414831517611e6157611e6061170a565b5b5092915050565b600060ff82169050919050565b6000611e8082611e68565b9150611e8b83611e68565b9250828201905060ff811115611ea457611ea361170a565b5b9291505056fea26469706673582212201a34edfe5c1e1640e845b742838fb3a7d3ed3d59ee20607d5cc1791182c473b164736f6c63430008110033","opcodes":"PUSH1 0x80 PUSH1 0x40 MSTORE CALLVALUE DUP1 ISZERO PUSH2 0x10 JUMPI PUSH1 0x0 DUP1 REVERT JUMPDEST POP PUSH2 0x1EE0 DUP1 PUSH2 0x20 PUSH1 0x0 CODECOPY PUSH1 0x0 RETURN INVALID PUSH1 0x80 PUSH1 0x40 MSTORE PUSH1 0x4 CALLDATASIZE LT PUSH2 0xA7 JUMPI PUSH1 0x0 CALLDATALOAD PUSH1 0xE0 SHR DUP1 PUSH4 0x7F30E11C GT PUSH2 0x64 JUMPI DUP1 PUSH4 0x7F30E11C EQ PUSH2 0x1D2 JUMPI DUP1 PUSH4 0xCDAB3012 EQ PUSH2 0x1EE JUMPI DUP1 PUSH4 0xD25C7FDF EQ PUSH2 0x219 JUMPI DUP1 PUSH4 0xD51DA6D1 EQ PUSH2 0x244 JUMPI DUP1 PUSH4 0xDC8D7C4D EQ PUSH2 0x260 JUMPI DUP1 PUSH4 0xE749F75C EQ PUSH2 0x29D JUMPI PUSH2 0xA7 JUMP JUMPDEST DUP1 PUSH4 0x18DB3DB6 EQ PUSH2 0xAC JUMPI DUP1 PUSH4 0x301E4AB9 EQ PUSH2 0xD7 JUMPI DUP1 PUSH4 0x5D9B5B11 EQ PUSH2 0x102 JUMPI DUP1 PUSH4 0x61AA3836 EQ PUSH2 0x13F JUMPI DUP1 PUSH4 0x6ECBDF67 EQ PUSH2 0x16A JUMPI DUP1 PUSH4 0x7B7B56BD EQ PUSH2 0x195 JUMPI JUMPDEST PUSH1 0x0 DUP1 REVERT JUMPDEST CALLVALUE DUP1 ISZERO PUSH2 0xB8 JUMPI PUSH1 0x0 DUP1 REVERT JUMPDEST POP PUSH2 0xC1 PUSH2 0x2C8 JUMP JUMPDEST PUSH1 0x40 MLOAD PUSH2 0xCE SWAP2 SWAP1 PUSH2 0x102D JUMP JUMPDEST PUSH1 0x40 MLOAD DUP1 SWAP2 SUB SWAP1 RETURN JUMPDEST CALLVALUE DUP1 ISZERO PUSH2 0xE3 JUMPI PUSH1 0x0 DUP1 REVERT JUMPDEST POP PUSH2 0xEC PUSH2 0x335 JUMP JUMPDEST PUSH1 0x40 MLOAD PUSH2 0xF9 SWAP2 SWAP1 PUSH2 0x119A JUMP JUMPDEST PUSH1 0x40 MLOAD DUP1 SWAP2 SUB SWAP1 RETURN JUMPDEST CALLVALUE DUP1 ISZERO PUSH2 0x10E JUMPI PUSH1 0x0 DUP1 REVERT JUMPDEST POP PUSH2 0x129 PUSH1 0x4 DUP1 CALLDATASIZE SUB DUP2 ADD SWAP1 PUSH2 0x124 SWAP2 SWAP1 PUSH2 0x11FC JUMP JUMPDEST PUSH2 0x53B JUMP JUMPDEST PUSH1 0x40 MLOAD PUSH2 0x136 SWAP2 SWAP1 PUSH2 0x102D JUMP JUMPDEST PUSH1 0x40 MLOAD DUP1 SWAP2 SUB SWAP1 RETURN JUMPDEST CALLVALUE DUP1 ISZERO PUSH2 0x14B JUMPI PUSH1 0x0 DUP1 REVERT JUMPDEST POP PUSH2 0x154 PUSH2 0x634 JUMP JUMPDEST PUSH1 0x40 MLOAD PUSH2 0x161 SWAP2 SWAP1 PUSH2 0x102D JUMP JUMPDEST PUSH1 0x40 MLOAD DUP1 SWAP2 SUB SWAP1 RETURN JUMPDEST CALLVALUE DUP1 ISZERO PUSH2 0x176 JUMPI PUSH1 0x0 DUP1 REVERT JUMPDEST POP PUSH2 0x17F PUSH2 0x641 JUMP JUMPDEST PUSH1 0x40 MLOAD PUSH2 0x18C SWAP2 SWAP1 PUSH2 0x13C4 JUMP JUMPDEST PUSH1 0x40 MLOAD DUP1 SWAP2 SUB SWAP1 RETURN JUMPDEST CALLVALUE DUP1 ISZERO PUSH2 0x1A1 JUMPI PUSH1 0x0 DUP1 REVERT JUMPDEST POP PUSH2 0x1BC PUSH1 0x4 DUP1 CALLDATASIZE SUB DUP2 ADD SWAP1 PUSH2 0x1B7 SWAP2 SWAP1 PUSH2 0x11FC JUMP JUMPDEST PUSH2 0x863 JUMP JUMPDEST PUSH1 0x40 MLOAD PUSH2 0x1C9 SWAP2 SWAP1 PUSH2 0x102D JUMP JUMPDEST PUSH1 0x40 MLOAD DUP1 SWAP2 SUB SWAP1 RETURN JUMPDEST PUSH2 0x1EC PUSH1 0x4 DUP1 CALLDATASIZE SUB DUP2 ADD SWAP1 PUSH2 0x1E7 SWAP2 SWAP1 PUSH2 0x11FC JUMP JUMPDEST PUSH2 0x892 JUMP JUMPDEST STOP JUMPDEST CALLVALUE DUP1 ISZERO PUSH2 0x1FA JUMPI PUSH1 0x0 DUP1 REVERT JUMPDEST POP PUSH2 0x203 PUSH2 0x9B4 JUMP JUMPDEST PUSH1 0x40 MLOAD PUSH2 0x210 SWAP2 SWAP1 PUSH2 0x1495 JUMP JUMPDEST PUSH1 0x40 MLOAD DUP1 SWAP2 SUB SWAP1 RETURN JUMPDEST CALLVALUE DUP1 ISZERO PUSH2 0x225 JUMPI PUSH1 0x0 DUP1 REVERT JUMPDEST POP PUSH2 0x22E PUSH2 0xA92 JUMP JUMPDEST PUSH1 0x40 MLOAD PUSH2 0x23B SWAP2 SWAP1 PUSH2 0x102D JUMP JUMPDEST PUSH1 0x40 MLOAD DUP1 SWAP2 SUB SWAP1 RETURN JUMPDEST PUSH2 0x25E PUSH1 0x4 DUP1 CALLDATASIZE SUB DUP2 ADD SWAP1 PUSH2 0x259 SWAP2 SWAP1 PUSH2 0x15EC JUMP JUMPDEST PUSH2 0xB4C JUMP JUMPDEST STOP JUMPDEST CALLVALUE DUP1 ISZERO PUSH2 0x26C JUMPI PUSH1 0x0 DUP1 REVERT JUMPDEST POP PUSH2 0x287 PUSH1 0x4 DUP1 CALLDATASIZE SUB DUP2 ADD SWAP1 PUSH2 0x282 SWAP2 SWAP1 PUSH2 0x11FC JUMP JUMPDEST PUSH2 0xC8E JUMP JUMPDEST PUSH1 0x40 MLOAD PUSH2 0x294 SWAP2 SWAP1 PUSH2 0x16B9 JUMP JUMPDEST PUSH1 0x40 MLOAD DUP1 SWAP2 SUB SWAP1 RETURN JUMPDEST CALLVALUE DUP1 ISZERO PUSH2 0x2A9 JUMPI PUSH1 0x0 DUP1 REVERT JUMPDEST POP PUSH2 0x2B2 PUSH2 0xD68 JUMP JUMPDEST PUSH1 0x40 MLOAD PUSH2 0x2BF SWAP2 SWAP1 PUSH2 0x1495 JUMP JUMPDEST PUSH1 0x40 MLOAD DUP1 SWAP2 SUB SWAP1 RETURN JUMPDEST PUSH1 0x0 DUP1 PUSH1 0x0 SWAP1 POP PUSH1 0x0 JUMPDEST PUSH1 0x1 DUP1 SLOAD SWAP1 POP DUP2 LT ISZERO PUSH2 0x32D JUMPI TIMESTAMP PUSH1 0x1 DUP3 DUP2 SLOAD DUP2 LT PUSH2 0x2F4 JUMPI PUSH2 0x2F3 PUSH2 0x16DB JUMP JUMPDEST JUMPDEST SWAP1 PUSH1 0x0 MSTORE PUSH1 0x20 PUSH1 0x0 KECCAK256 SWAP1 PUSH1 0x6 MUL ADD PUSH1 0x3 ADD SLOAD LT PUSH2 0x31A JUMPI DUP2 DUP1 PUSH2 0x316 SWAP1 PUSH2 0x1739 JUMP JUMPDEST SWAP3 POP POP JUMPDEST DUP1 DUP1 PUSH2 0x325 SWAP1 PUSH2 0x1739 JUMP JUMPDEST SWAP2 POP POP PUSH2 0x2D2 JUMP JUMPDEST POP DUP1 SWAP2 POP POP SWAP1 JUMP JUMPDEST PUSH1 0x60 PUSH1 0x0 PUSH2 0x341 PUSH2 0xA92 JUMP JUMPDEST SWAP1 POP PUSH1 0x0 DUP2 PUSH8 0xFFFFFFFFFFFFFFFF DUP2 GT ISZERO PUSH2 0x35F JUMPI PUSH2 0x35E PUSH2 0x14C1 JUMP JUMPDEST JUMPDEST PUSH1 0x40 MLOAD SWAP1 DUP1 DUP3 MSTORE DUP1 PUSH1 0x20 MUL PUSH1 0x20 ADD DUP3 ADD PUSH1 0x40 MSTORE DUP1 ISZERO PUSH2 0x392 JUMPI DUP2 PUSH1 0x20 ADD JUMPDEST PUSH1 0x60 DUP2 MSTORE PUSH1 0x20 ADD SWAP1 PUSH1 0x1 SWAP1 SUB SWAP1 DUP2 PUSH2 0x37D JUMPI SWAP1 POP JUMPDEST POP SWAP1 POP PUSH1 0x0 DUP1 JUMPDEST PUSH1 0x0 DUP1 SLOAD SWAP1 POP DUP2 LT ISZERO PUSH2 0x531 JUMPI CALLER PUSH20 0xFFFFFFFFFFFFFFFFFFFFFFFFFFFFFFFFFFFFFFFF AND PUSH1 0x0 DUP3 DUP2 SLOAD DUP2 LT PUSH2 0x3D1 JUMPI PUSH2 0x3D0 PUSH2 0x16DB JUMP JUMPDEST JUMPDEST SWAP1 PUSH1 0x0 MSTORE PUSH1 0x20 PUSH1 0x0 KECCAK256 SWAP1 PUSH1 0x3 MUL ADD PUSH1 0x2 ADD PUSH1 0x0 SWAP1 SLOAD SWAP1 PUSH2 0x100 EXP SWAP1 DIV PUSH20 0xFFFFFFFFFFFFFFFFFFFFFFFFFFFFFFFFFFFFFFFF AND PUSH20 0xFFFFFFFFFFFFFFFFFFFFFFFFFFFFFFFFFFFFFFFF AND SUB PUSH2 0x51E JUMPI PUSH1 0x1 PUSH1 0x0 DUP3 DUP2 SLOAD DUP2 LT PUSH2 0x434 JUMPI PUSH2 0x433 PUSH2 0x16DB JUMP JUMPDEST JUMPDEST SWAP1 PUSH1 0x0 MSTORE PUSH1 0x20 PUSH1 0x0 KECCAK256 SWAP1 PUSH1 0x3 MUL ADD PUSH1 0x1 ADD SLOAD DUP2 SLOAD DUP2 LT PUSH2 0x457 JUMPI PUSH2 0x456 PUSH2 0x16DB JUMP JUMPDEST JUMPDEST SWAP1 PUSH1 0x0 MSTORE PUSH1 0x20 PUSH1 0x0 KECCAK256 SWAP1 PUSH1 0x6 MUL ADD PUSH1 0x2 ADD DUP1 SLOAD PUSH2 0x473 SWAP1 PUSH2 0x17B0 JUMP JUMPDEST DUP1 PUSH1 0x1F ADD PUSH1 0x20 DUP1 SWAP2 DIV MUL PUSH1 0x20 ADD PUSH1 0x40 MLOAD SWAP1 DUP2 ADD PUSH1 0x40 MSTORE DUP1 SWAP3 SWAP2 SWAP1 DUP2 DUP2 MSTORE PUSH1 0x20 ADD DUP3 DUP1 SLOAD PUSH2 0x49F SWAP1 PUSH2 0x17B0 JUMP JUMPDEST DUP1 ISZERO PUSH2 0x4EC JUMPI DUP1 PUSH1 0x1F LT PUSH2 0x4C1 JUMPI PUSH2 0x100 DUP1 DUP4 SLOAD DIV MUL DUP4 MSTORE SWAP2 PUSH1 0x20 ADD SWAP2 PUSH2 0x4EC JUMP JUMPDEST DUP3 ADD SWAP2 SWAP1 PUSH1 0x0 MSTORE PUSH1 0x20 PUSH1 0x0 KECCAK256 SWAP1 JUMPDEST DUP2 SLOAD DUP2 MSTORE SWAP1 PUSH1 0x1 ADD SWAP1 PUSH1 0x20 ADD DUP1 DUP4 GT PUSH2 0x4CF JUMPI DUP3 SWAP1 SUB PUSH1 0x1F AND DUP3 ADD SWAP2 JUMPDEST POP POP POP POP POP DUP4 DUP4 DUP2 MLOAD DUP2 LT PUSH2 0x504 JUMPI PUSH2 0x503 PUSH2 0x16DB JUMP JUMPDEST JUMPDEST PUSH1 0x20 MUL PUSH1 0x20 ADD ADD DUP2 SWAP1 MSTORE POP DUP2 DUP1 PUSH2 0x51A SWAP1 PUSH2 0x1739 JUMP JUMPDEST SWAP3 POP POP JUMPDEST DUP1 DUP1 PUSH2 0x529 SWAP1 PUSH2 0x1739 JUMP JUMPDEST SWAP2 POP POP PUSH2 0x399 JUMP JUMPDEST POP DUP2 SWAP4 POP POP POP POP SWAP1 JUMP JUMPDEST PUSH1 0x0 DUP1 PUSH1 0x0 SWAP1 POP PUSH1 0x0 JUMPDEST PUSH1 0x0 DUP1 SLOAD SWAP1 POP DUP2 LT ISZERO PUSH2 0x61E JUMPI CALLER PUSH20 0xFFFFFFFFFFFFFFFFFFFFFFFFFFFFFFFFFFFFFFFF AND PUSH1 0x0 DUP3 DUP2 SLOAD DUP2 LT PUSH2 0x57D JUMPI PUSH2 0x57C PUSH2 0x16DB JUMP JUMPDEST JUMPDEST SWAP1 PUSH1 0x0 MSTORE PUSH1 0x20 PUSH1 0x0 KECCAK256 SWAP1 PUSH1 0x3 MUL ADD PUSH1 0x2 ADD PUSH1 0x0 SWAP1 SLOAD SWAP1 PUSH2 0x100 EXP SWAP1 DIV PUSH20 0xFFFFFFFFFFFFFFFFFFFFFFFFFFFFFFFFFFFFFFFF AND PUSH20 0xFFFFFFFFFFFFFFFFFFFFFFFFFFFFFFFFFFFFFFFF AND EQ DUP1 ISZERO PUSH2 0x5F6 JUMPI POP PUSH1 0x0 DUP2 DUP2 SLOAD DUP2 LT PUSH2 0x5E1 JUMPI PUSH2 0x5E0 PUSH2 0x16DB JUMP JUMPDEST JUMPDEST SWAP1 PUSH1 0x0 MSTORE PUSH1 0x20 PUSH1 0x0 KECCAK256 SWAP1 PUSH1 0x3 MUL ADD PUSH1 0x1 ADD SLOAD DUP5 EQ JUMPDEST ISZERO PUSH2 0x60B JUMPI PUSH1 0x1 DUP3 PUSH2 0x608 SWAP2 SWAP1 PUSH2 0x17E1 JUMP JUMPDEST SWAP2 POP JUMPDEST DUP1 DUP1 PUSH2 0x616 SWAP1 PUSH2 0x1739 JUMP JUMPDEST SWAP2 POP POP PUSH2 0x545 JUMP JUMPDEST POP DUP1 PUSH1 0x3 PUSH2 0x62C SWAP2 SWAP1 PUSH2 0x1815 JUMP JUMPDEST SWAP2 POP POP SWAP2 SWAP1 POP JUMP JUMPDEST PUSH1 0x0 PUSH1 0x1 DUP1 SLOAD SWAP1 POP SWAP1 POP SWAP1 JUMP JUMPDEST PUSH1 0x60 PUSH1 0x0 PUSH1 0x1 DUP1 SLOAD SWAP1 POP PUSH8 0xFFFFFFFFFFFFFFFF DUP2 GT ISZERO PUSH2 0x664 JUMPI PUSH2 0x663 PUSH2 0x14C1 JUMP JUMPDEST JUMPDEST PUSH1 0x40 MLOAD SWAP1 DUP1 DUP3 MSTORE DUP1 PUSH1 0x20 MUL PUSH1 0x20 ADD DUP3 ADD PUSH1 0x40 MSTORE DUP1 ISZERO PUSH2 0x69D JUMPI DUP2 PUSH1 0x20 ADD JUMPDEST PUSH2 0x68A PUSH2 0xF91 JUMP JUMPDEST DUP2 MSTORE PUSH1 0x20 ADD SWAP1 PUSH1 0x1 SWAP1 SUB SWAP1 DUP2 PUSH2 0x682 JUMPI SWAP1 POP JUMPDEST POP SWAP1 POP PUSH1 0x0 DUP1 JUMPDEST PUSH1 0x1 DUP1 SLOAD SWAP1 POP DUP2 LT ISZERO PUSH2 0x85A JUMPI TIMESTAMP PUSH1 0x1 DUP3 DUP2 SLOAD DUP2 LT PUSH2 0x6C6 JUMPI PUSH2 0x6C5 PUSH2 0x16DB JUMP JUMPDEST JUMPDEST SWAP1 PUSH1 0x0 MSTORE PUSH1 0x20 PUSH1 0x0 KECCAK256 SWAP1 PUSH1 0x6 MUL ADD PUSH1 0x3 ADD SLOAD LT PUSH2 0x847 JUMPI PUSH1 0x1 DUP2 DUP2 SLOAD DUP2 LT PUSH2 0x6F1 JUMPI PUSH2 0x6F0 PUSH2 0x16DB JUMP JUMPDEST JUMPDEST SWAP1 PUSH1 0x0 MSTORE PUSH1 0x20 PUSH1 0x0 KECCAK256 SWAP1 PUSH1 0x6 MUL ADD PUSH1 0x40 MLOAD DUP1 PUSH1 0xC0 ADD PUSH1 0x40 MSTORE SWAP1 DUP2 PUSH1 0x0 DUP3 ADD SLOAD DUP2 MSTORE PUSH1 0x20 ADD PUSH1 0x1 DUP3 ADD PUSH1 0x0 SWAP1 SLOAD SWAP1 PUSH2 0x100 EXP SWAP1 DIV PUSH20 0xFFFFFFFFFFFFFFFFFFFFFFFFFFFFFFFFFFFFFFFF AND PUSH20 0xFFFFFFFFFFFFFFFFFFFFFFFFFFFFFFFFFFFFFFFF AND PUSH20 0xFFFFFFFFFFFFFFFFFFFFFFFFFFFFFFFFFFFFFFFF AND DUP2 MSTORE PUSH1 0x20 ADD PUSH1 0x2 DUP3 ADD DUP1 SLOAD PUSH2 0x77A SWAP1 PUSH2 0x17B0 JUMP JUMPDEST DUP1 PUSH1 0x1F ADD PUSH1 0x20 DUP1 SWAP2 DIV MUL PUSH1 0x20 ADD PUSH1 0x40 MLOAD SWAP1 DUP2 ADD PUSH1 0x40 MSTORE DUP1 SWAP3 SWAP2 SWAP1 DUP2 DUP2 MSTORE PUSH1 0x20 ADD DUP3 DUP1 SLOAD PUSH2 0x7A6 SWAP1 PUSH2 0x17B0 JUMP JUMPDEST DUP1 ISZERO PUSH2 0x7F3 JUMPI DUP1 PUSH1 0x1F LT PUSH2 0x7C8 JUMPI PUSH2 0x100 DUP1 DUP4 SLOAD DIV MUL DUP4 MSTORE SWAP2 PUSH1 0x20 ADD SWAP2 PUSH2 0x7F3 JUMP JUMPDEST DUP3 ADD SWAP2 SWAP1 PUSH1 0x0 MSTORE PUSH1 0x20 PUSH1 0x0 KECCAK256 SWAP1 JUMPDEST DUP2 SLOAD DUP2 MSTORE SWAP1 PUSH1 0x1 ADD SWAP1 PUSH1 0x20 ADD DUP1 DUP4 GT PUSH2 0x7D6 JUMPI DUP3 SWAP1 SUB PUSH1 0x1F AND DUP3 ADD SWAP2 JUMPDEST POP POP POP POP POP DUP2 MSTORE PUSH1 0x20 ADD PUSH1 0x3 DUP3 ADD SLOAD DUP2 MSTORE PUSH1 0x20 ADD PUSH1 0x4 DUP3 ADD SLOAD DUP2 MSTORE PUSH1 0x20 ADD PUSH1 0x5 DUP3 ADD SLOAD DUP2 MSTORE POP POP DUP4 DUP4 DUP2 MLOAD DUP2 LT PUSH2 0x82D JUMPI PUSH2 0x82C PUSH2 0x16DB JUMP JUMPDEST JUMPDEST PUSH1 0x20 MUL PUSH1 0x20 ADD ADD DUP2 SWAP1 MSTORE POP DUP2 DUP1 PUSH2 0x843 SWAP1 PUSH2 0x1739 JUMP JUMPDEST SWAP3 POP POP JUMPDEST DUP1 DUP1 PUSH2 0x852 SWAP1 PUSH2 0x1739 JUMP JUMPDEST SWAP2 POP POP PUSH2 0x6A4 JUMP JUMPDEST POP DUP2 SWAP3 POP POP POP SWAP1 JUMP JUMPDEST PUSH1 0x0 PUSH1 0x1 DUP3 DUP2 SLOAD DUP2 LT PUSH2 0x879 JUMPI PUSH2 0x878 PUSH2 0x16DB JUMP JUMPDEST JUMPDEST SWAP1 PUSH1 0x0 MSTORE PUSH1 0x20 PUSH1 0x0 KECCAK256 SWAP1 PUSH1 0x6 MUL ADD PUSH1 0x4 ADD SLOAD SWAP1 POP SWAP2 SWAP1 POP JUMP JUMPDEST PUSH2 0x89A PUSH2 0xFDD JUMP JUMPDEST PUSH1 0x0 DUP1 SLOAD SWAP1 POP DUP2 PUSH1 0x0 ADD DUP2 DUP2 MSTORE POP POP DUP2 DUP2 PUSH1 0x20 ADD DUP2 DUP2 MSTORE POP POP CALLER DUP2 PUSH1 0x40 ADD SWAP1 PUSH20 0xFFFFFFFFFFFFFFFFFFFFFFFFFFFFFFFFFFFFFFFF AND SWAP1 DUP2 PUSH20 0xFFFFFFFFFFFFFFFFFFFFFFFFFFFFFFFFFFFFFFFF AND DUP2 MSTORE POP POP PUSH1 0x0 DUP2 SWAP1 DUP1 PUSH1 0x1 DUP2 SLOAD ADD DUP1 DUP3 SSTORE DUP1 SWAP2 POP POP PUSH1 0x1 SWAP1 SUB SWAP1 PUSH1 0x0 MSTORE PUSH1 0x20 PUSH1 0x0 KECCAK256 SWAP1 PUSH1 0x3 MUL ADD PUSH1 0x0 SWAP1 SWAP2 SWAP1 SWAP2 SWAP1 SWAP2 POP PUSH1 0x0 DUP3 ADD MLOAD DUP2 PUSH1 0x0 ADD SSTORE PUSH1 0x20 DUP3 ADD MLOAD DUP2 PUSH1 0x1 ADD SSTORE PUSH1 0x40 DUP3 ADD MLOAD DUP2 PUSH1 0x2 ADD PUSH1 0x0 PUSH2 0x100 EXP DUP2 SLOAD DUP2 PUSH20 0xFFFFFFFFFFFFFFFFFFFFFFFFFFFFFFFFFFFFFFFF MUL NOT AND SWAP1 DUP4 PUSH20 0xFFFFFFFFFFFFFFFFFFFFFFFFFFFFFFFFFFFFFFFF AND MUL OR SWAP1 SSTORE POP POP POP PUSH1 0x1 DUP1 DUP4 DUP2 SLOAD DUP2 LT PUSH2 0x989 JUMPI PUSH2 0x988 PUSH2 0x16DB JUMP JUMPDEST JUMPDEST SWAP1 PUSH1 0x0 MSTORE PUSH1 0x20 PUSH1 0x0 KECCAK256 SWAP1 PUSH1 0x6 MUL ADD PUSH1 0x4 ADD PUSH1 0x0 DUP3 DUP3 SLOAD PUSH2 0x9A9 SWAP2 SWAP1 PUSH2 0x1815 JUMP JUMPDEST SWAP3 POP POP DUP2 SWAP1 SSTORE POP POP POP JUMP JUMPDEST PUSH1 0x60 PUSH1 0x0 PUSH2 0x9C0 PUSH2 0x2C8 JUMP JUMPDEST PUSH8 0xFFFFFFFFFFFFFFFF DUP2 GT ISZERO PUSH2 0x9D9 JUMPI PUSH2 0x9D8 PUSH2 0x14C1 JUMP JUMPDEST JUMPDEST PUSH1 0x40 MLOAD SWAP1 DUP1 DUP3 MSTORE DUP1 PUSH1 0x20 MUL PUSH1 0x20 ADD DUP3 ADD PUSH1 0x40 MSTORE DUP1 ISZERO PUSH2 0xA07 JUMPI DUP2 PUSH1 0x20 ADD PUSH1 0x20 DUP3 MUL DUP1 CALLDATASIZE DUP4 CALLDATACOPY DUP1 DUP3 ADD SWAP2 POP POP SWAP1 POP JUMPDEST POP SWAP1 POP PUSH1 0x0 DUP1 JUMPDEST PUSH1 0x1 DUP1 SLOAD SWAP1 POP DUP2 LT ISZERO PUSH2 0xA89 JUMPI TIMESTAMP PUSH1 0x1 DUP3 DUP2 SLOAD DUP2 LT PUSH2 0xA30 JUMPI PUSH2 0xA2F PUSH2 0x16DB JUMP JUMPDEST JUMPDEST SWAP1 PUSH1 0x0 MSTORE PUSH1 0x20 PUSH1 0x0 KECCAK256 SWAP1 PUSH1 0x6 MUL ADD PUSH1 0x3 ADD SLOAD LT PUSH2 0xA76 JUMPI DUP1 DUP4 DUP4 DUP2 MLOAD DUP2 LT PUSH2 0xA5B JUMPI PUSH2 0xA5A PUSH2 0x16DB JUMP JUMPDEST JUMPDEST PUSH1 0x20 MUL PUSH1 0x20 ADD ADD DUP2 DUP2 MSTORE POP POP DUP2 DUP1 PUSH2 0xA72 SWAP1 PUSH2 0x1739 JUMP JUMPDEST SWAP3 POP POP JUMPDEST DUP1 DUP1 PUSH2 0xA81 SWAP1 PUSH2 0x1739 JUMP JUMPDEST SWAP2 POP POP PUSH2 0xA0E JUMP JUMPDEST POP DUP2 SWAP3 POP POP POP SWAP1 JUMP JUMPDEST PUSH1 0x0 DUP1 PUSH1 0x0 SWAP1 POP PUSH1 0x0 JUMPDEST PUSH1 0x0 DUP1 SLOAD SWAP1 POP DUP2 LT ISZERO PUSH2 0xB44 JUMPI CALLER PUSH20 0xFFFFFFFFFFFFFFFFFFFFFFFFFFFFFFFFFFFFFFFF AND PUSH1 0x0 DUP3 DUP2 SLOAD DUP2 LT PUSH2 0xAD4 JUMPI PUSH2 0xAD3 PUSH2 0x16DB JUMP JUMPDEST JUMPDEST SWAP1 PUSH1 0x0 MSTORE PUSH1 0x20 PUSH1 0x0 KECCAK256 SWAP1 PUSH1 0x3 MUL ADD PUSH1 0x2 ADD PUSH1 0x0 SWAP1 SLOAD SWAP1 PUSH2 0x100 EXP SWAP1 DIV PUSH20 0xFFFFFFFFFFFFFFFFFFFFFFFFFFFFFFFFFFFFFFFF AND PUSH20 0xFFFFFFFFFFFFFFFFFFFFFFFFFFFFFFFFFFFFFFFF AND SUB PUSH2 0xB31 JUMPI PUSH1 0x1 DUP3 PUSH2 0xB2E SWAP2 SWAP1 PUSH2 0x17E1 JUMP JUMPDEST SWAP2 POP JUMPDEST DUP1 DUP1 PUSH2 0xB3C SWAP1 PUSH2 0x1739 JUMP JUMPDEST SWAP2 POP POP PUSH2 0xA9C JUMP JUMPDEST POP DUP1 SWAP2 POP POP SWAP1 JUMP JUMPDEST CALLVALUE DUP5 PUSH1 0x0 DUP3 LT ISZERO PUSH2 0xB5C JUMPI PUSH1 0x0 DUP1 REVERT JUMPDEST PUSH2 0xB64 PUSH2 0xF91 JUMP JUMPDEST PUSH1 0x1 DUP1 SLOAD SWAP1 POP DUP2 PUSH1 0x0 ADD DUP2 DUP2 MSTORE POP POP CALLER DUP2 PUSH1 0x20 ADD SWAP1 PUSH20 0xFFFFFFFFFFFFFFFFFFFFFFFFFFFFFFFFFFFFFFFF AND SWAP1 DUP2 PUSH20 0xFFFFFFFFFFFFFFFFFFFFFFFFFFFFFFFFFFFFFFFF AND DUP2 MSTORE POP POP DUP6 DUP2 PUSH1 0x40 ADD DUP2 SWAP1 MSTORE POP DUP5 DUP2 PUSH1 0x60 ADD DUP2 DUP2 MSTORE POP POP DUP7 DUP2 PUSH1 0x80 ADD DUP2 DUP2 MSTORE POP POP DUP4 DUP2 PUSH1 0xA0 ADD DUP2 DUP2 MSTORE POP POP PUSH1 0x1 DUP2 SWAP1 DUP1 PUSH1 0x1 DUP2 SLOAD ADD DUP1 DUP3 SSTORE DUP1 SWAP2 POP POP PUSH1 0x1 SWAP1 SUB SWAP1 PUSH1 0x0 MSTORE PUSH1 0x20 PUSH1 0x0 KECCAK256 SWAP1 PUSH1 0x6 MUL ADD PUSH1 0x0 SWAP1 SWAP2 SWAP1 SWAP2 SWAP1 SWAP2 POP PUSH1 0x0 DUP3 ADD MLOAD DUP2 PUSH1 0x0 ADD SSTORE PUSH1 0x20 DUP3 ADD MLOAD DUP2 PUSH1 0x1 ADD PUSH1 0x0 PUSH2 0x100 EXP DUP2 SLOAD DUP2 PUSH20 0xFFFFFFFFFFFFFFFFFFFFFFFFFFFFFFFFFFFFFFFF MUL NOT AND SWAP1 DUP4 PUSH20 0xFFFFFFFFFFFFFFFFFFFFFFFFFFFFFFFFFFFFFFFF AND MUL OR SWAP1 SSTORE POP PUSH1 0x40 DUP3 ADD MLOAD DUP2 PUSH1 0x2 ADD SWAP1 DUP2 PUSH2 0xC64 SWAP2 SWAP1 PUSH2 0x19F5 JUMP JUMPDEST POP PUSH1 0x60 DUP3 ADD MLOAD DUP2 PUSH1 0x3 ADD SSTORE PUSH1 0x80 DUP3 ADD MLOAD DUP2 PUSH1 0x4 ADD SSTORE PUSH1 0xA0 DUP3 ADD MLOAD DUP2 PUSH1 0x5 ADD SSTORE POP POP POP POP POP POP POP POP POP JUMP JUMPDEST PUSH1 0x60 PUSH1 0x1 DUP3 DUP2 SLOAD DUP2 LT PUSH2 0xCA4 JUMPI PUSH2 0xCA3 PUSH2 0x16DB JUMP JUMPDEST JUMPDEST SWAP1 PUSH1 0x0 MSTORE PUSH1 0x20 PUSH1 0x0 KECCAK256 SWAP1 PUSH1 0x6 MUL ADD PUSH1 0x2 ADD PUSH2 0xCE3 PUSH1 0x1 DUP5 DUP2 SLOAD DUP2 LT PUSH2 0xCCC JUMPI PUSH2 0xCCB PUSH2 0x16DB JUMP JUMPDEST JUMPDEST SWAP1 PUSH1 0x0 MSTORE PUSH1 0x20 PUSH1 0x0 KECCAK256 SWAP1 PUSH1 0x6 MUL ADD PUSH1 0x3 ADD SLOAD PUSH2 0xE09 JUMP JUMPDEST PUSH2 0xD11 PUSH1 0x1 DUP6 DUP2 SLOAD DUP2 LT PUSH2 0xCFA JUMPI PUSH2 0xCF9 PUSH2 0x16DB JUMP JUMPDEST JUMPDEST SWAP1 PUSH1 0x0 MSTORE PUSH1 0x20 PUSH1 0x0 KECCAK256 SWAP1 PUSH1 0x6 MUL ADD PUSH1 0x4 ADD SLOAD PUSH2 0xE09 JUMP JUMPDEST PUSH2 0xD3F PUSH1 0x1 DUP7 DUP2 SLOAD DUP2 LT PUSH2 0xD28 JUMPI PUSH2 0xD27 PUSH2 0x16DB JUMP JUMPDEST JUMPDEST SWAP1 PUSH1 0x0 MSTORE PUSH1 0x20 PUSH1 0x0 KECCAK256 SWAP1 PUSH1 0x6 MUL ADD PUSH1 0x5 ADD SLOAD PUSH2 0xE09 JUMP JUMPDEST PUSH1 0x40 MLOAD PUSH1 0x20 ADD PUSH2 0xD52 SWAP5 SWAP4 SWAP3 SWAP2 SWAP1 PUSH2 0x1CB6 JUMP JUMPDEST PUSH1 0x40 MLOAD PUSH1 0x20 DUP2 DUP4 SUB SUB DUP2 MSTORE SWAP1 PUSH1 0x40 MSTORE SWAP1 POP SWAP2 SWAP1 POP JUMP JUMPDEST PUSH1 0x60 PUSH1 0x0 PUSH2 0xD74 PUSH2 0x2C8 JUMP JUMPDEST PUSH8 0xFFFFFFFFFFFFFFFF DUP2 GT ISZERO PUSH2 0xD8D JUMPI PUSH2 0xD8C PUSH2 0x14C1 JUMP JUMPDEST JUMPDEST PUSH1 0x40 MLOAD SWAP1 DUP1 DUP3 MSTORE DUP1 PUSH1 0x20 MUL PUSH1 0x20 ADD DUP3 ADD PUSH1 0x40 MSTORE DUP1 ISZERO PUSH2 0xDBB JUMPI DUP2 PUSH1 0x20 ADD PUSH1 0x20 DUP3 MUL DUP1 CALLDATASIZE DUP4 CALLDATACOPY DUP1 DUP3 ADD SWAP2 POP POP SWAP1 POP JUMPDEST POP SWAP1 POP PUSH1 0x0 JUMPDEST PUSH1 0x1 DUP1 SLOAD SWAP1 POP DUP2 LT ISZERO PUSH2 0xE01 JUMPI DUP1 DUP3 DUP3 DUP2 MLOAD DUP2 LT PUSH2 0xDE2 JUMPI PUSH2 0xDE1 PUSH2 0x16DB JUMP JUMPDEST JUMPDEST PUSH1 0x20 MUL PUSH1 0x20 ADD ADD DUP2 DUP2 MSTORE POP POP DUP1 DUP1 PUSH2 0xDF9 SWAP1 PUSH2 0x1739 JUMP JUMPDEST SWAP2 POP POP PUSH2 0xDC1 JUMP JUMPDEST POP DUP1 SWAP2 POP POP SWAP1 JUMP JUMPDEST PUSH1 0x60 PUSH1 0x0 DUP3 SUB PUSH2 0xE50 JUMPI PUSH1 0x40 MLOAD DUP1 PUSH1 0x40 ADD PUSH1 0x40 MSTORE DUP1 PUSH1 0x1 DUP2 MSTORE PUSH1 0x20 ADD PUSH32 0x3000000000000000000000000000000000000000000000000000000000000000 DUP2 MSTORE POP SWAP1 POP PUSH2 0xF8C JUMP JUMPDEST PUSH1 0x0 DUP3 SWAP1 POP PUSH1 0x0 JUMPDEST PUSH1 0x0 DUP3 EQ PUSH2 0xE82 JUMPI DUP1 DUP1 PUSH2 0xE6B SWAP1 PUSH2 0x1739 JUMP JUMPDEST SWAP2 POP POP PUSH1 0xA DUP3 PUSH2 0xE7B SWAP2 SWAP1 PUSH2 0x1DF5 JUMP JUMPDEST SWAP2 POP PUSH2 0xE58 JUMP JUMPDEST PUSH1 0x0 DUP2 PUSH8 0xFFFFFFFFFFFFFFFF DUP2 GT ISZERO PUSH2 0xE9E JUMPI PUSH2 0xE9D PUSH2 0x14C1 JUMP JUMPDEST JUMPDEST PUSH1 0x40 MLOAD SWAP1 DUP1 DUP3 MSTORE DUP1 PUSH1 0x1F ADD PUSH1 0x1F NOT AND PUSH1 0x20 ADD DUP3 ADD PUSH1 0x40 MSTORE DUP1 ISZERO PUSH2 0xED0 JUMPI DUP2 PUSH1 0x20 ADD PUSH1 0x1 DUP3 MUL DUP1 CALLDATASIZE DUP4 CALLDATACOPY DUP1 DUP3 ADD SWAP2 POP POP SWAP1 POP JUMPDEST POP SWAP1 POP PUSH1 0x0 DUP3 SWAP1 POP JUMPDEST PUSH1 0x0 DUP7 EQ PUSH2 0xF84 JUMPI PUSH1 0x1 DUP2 PUSH2 0xEEE SWAP2 SWAP1 PUSH2 0x1815 JUMP JUMPDEST SWAP1 POP PUSH1 0x0 PUSH1 0xA DUP1 DUP9 PUSH2 0xF00 SWAP2 SWAP1 PUSH2 0x1DF5 JUMP JUMPDEST PUSH2 0xF0A SWAP2 SWAP1 PUSH2 0x1E26 JUMP JUMPDEST DUP8 PUSH2 0xF15 SWAP2 SWAP1 PUSH2 0x1815 JUMP JUMPDEST PUSH1 0x30 PUSH2 0xF21 SWAP2 SWAP1 PUSH2 0x1E75 JUMP JUMPDEST SWAP1 POP PUSH1 0x0 DUP2 PUSH1 0xF8 SHL SWAP1 POP DUP1 DUP5 DUP5 DUP2 MLOAD DUP2 LT PUSH2 0xF3F JUMPI PUSH2 0xF3E PUSH2 0x16DB JUMP JUMPDEST JUMPDEST PUSH1 0x20 ADD ADD SWAP1 PUSH31 0xFFFFFFFFFFFFFFFFFFFFFFFFFFFFFFFFFFFFFFFFFFFFFFFFFFFFFFFFFFFFFF NOT AND SWAP1 DUP2 PUSH1 0x0 BYTE SWAP1 MSTORE8 POP PUSH1 0xA DUP9 PUSH2 0xF7B SWAP2 SWAP1 PUSH2 0x1DF5 JUMP JUMPDEST SWAP8 POP POP POP PUSH2 0xED9 JUMP JUMPDEST DUP2 SWAP5 POP POP POP POP POP JUMPDEST SWAP2 SWAP1 POP JUMP JUMPDEST PUSH1 0x40 MLOAD DUP1 PUSH1 0xC0 ADD PUSH1 0x40 MSTORE DUP1 PUSH1 0x0 DUP2 MSTORE PUSH1 0x20 ADD PUSH1 0x0 PUSH20 0xFFFFFFFFFFFFFFFFFFFFFFFFFFFFFFFFFFFFFFFF AND DUP2 MSTORE PUSH1 0x20 ADD PUSH1 0x60 DUP2 MSTORE PUSH1 0x20 ADD PUSH1 0x0 DUP2 MSTORE PUSH1 0x20 ADD PUSH1 0x0 DUP2 MSTORE PUSH1 0x20 ADD PUSH1 0x0 DUP2 MSTORE POP SWAP1 JUMP JUMPDEST PUSH1 0x40 MLOAD DUP1 PUSH1 0x60 ADD PUSH1 0x40 MSTORE DUP1 PUSH1 0x0 DUP2 MSTORE PUSH1 0x20 ADD PUSH1 0x0 DUP2 MSTORE PUSH1 0x20 ADD PUSH1 0x0 PUSH20 0xFFFFFFFFFFFFFFFFFFFFFFFFFFFFFFFFFFFFFFFF AND DUP2 MSTORE POP SWAP1 JUMP JUMPDEST PUSH1 0x0 DUP2 SWAP1 POP SWAP2 SWAP1 POP JUMP JUMPDEST PUSH2 0x1027 DUP2 PUSH2 0x1014 JUMP JUMPDEST DUP3 MSTORE POP POP JUMP JUMPDEST PUSH1 0x0 PUSH1 0x20 DUP3 ADD SWAP1 POP PUSH2 0x1042 PUSH1 0x0 DUP4 ADD DUP5 PUSH2 0x101E JUMP JUMPDEST SWAP3 SWAP2 POP POP JUMP JUMPDEST PUSH1 0x0 DUP2 MLOAD SWAP1 POP SWAP2 SWAP1 POP JUMP JUMPDEST PUSH1 0x0 DUP3 DUP3 MSTORE PUSH1 0x20 DUP3 ADD SWAP1 POP SWAP3 SWAP2 POP POP JUMP JUMPDEST PUSH1 0x0 DUP2 SWAP1 POP PUSH1 0x20 DUP3 ADD SWAP1 POP SWAP2 SWAP1 POP JUMP JUMPDEST PUSH1 0x0 DUP2 MLOAD SWAP1 POP SWAP2 SWAP1 POP JUMP JUMPDEST PUSH1 0x0 DUP3 DUP3 MSTORE PUSH1 0x20 DUP3 ADD SWAP1 POP SWAP3 SWAP2 POP POP JUMP JUMPDEST PUSH1 0x0 JUMPDEST DUP4 DUP2 LT ISZERO PUSH2 0x10AE JUMPI DUP1 DUP3 ADD MLOAD DUP2 DUP5 ADD MSTORE PUSH1 0x20 DUP2 ADD SWAP1 POP PUSH2 0x1093 JUMP JUMPDEST PUSH1 0x0 DUP5 DUP5 ADD MSTORE POP POP POP POP JUMP JUMPDEST PUSH1 0x0 PUSH1 0x1F NOT PUSH1 0x1F DUP4 ADD AND SWAP1 POP SWAP2 SWAP1 POP JUMP JUMPDEST PUSH1 0x0 PUSH2 0x10D6 DUP3 PUSH2 0x1074 JUMP JUMPDEST PUSH2 0x10E0 DUP2 DUP6 PUSH2 0x107F JUMP JUMPDEST SWAP4 POP PUSH2 0x10F0 DUP2 DUP6 PUSH1 0x20 DUP7 ADD PUSH2 0x1090 JUMP JUMPDEST PUSH2 0x10F9 DUP2 PUSH2 0x10BA JUMP JUMPDEST DUP5 ADD SWAP2 POP POP SWAP3 SWAP2 POP POP JUMP JUMPDEST PUSH1 0x0 PUSH2 0x1110 DUP4 DUP4 PUSH2 0x10CB JUMP JUMPDEST SWAP1 POP SWAP3 SWAP2 POP POP JUMP JUMPDEST PUSH1 0x0 PUSH1 0x20 DUP3 ADD SWAP1 POP SWAP2 SWAP1 POP JUMP JUMPDEST PUSH1 0x0 PUSH2 0x1130 DUP3 PUSH2 0x1048 JUMP JUMPDEST PUSH2 0x113A DUP2 DUP6 PUSH2 0x1053 JUMP JUMPDEST SWAP4 POP DUP4 PUSH1 0x20 DUP3 MUL DUP6 ADD PUSH2 0x114C DUP6 PUSH2 0x1064 JUMP JUMPDEST DUP1 PUSH1 0x0 JUMPDEST DUP6 DUP2 LT ISZERO PUSH2 0x1188 JUMPI DUP5 DUP5 SUB DUP10 MSTORE DUP2 MLOAD PUSH2 0x1169 DUP6 DUP3 PUSH2 0x1104 JUMP JUMPDEST SWAP5 POP PUSH2 0x1174 DUP4 PUSH2 0x1118 JUMP JUMPDEST SWAP3 POP PUSH1 0x20 DUP11 ADD SWAP10 POP POP PUSH1 0x1 DUP2 ADD SWAP1 POP PUSH2 0x1150 JUMP JUMPDEST POP DUP3 SWAP8 POP DUP8 SWAP6 POP POP POP POP POP POP SWAP3 SWAP2 POP POP JUMP JUMPDEST PUSH1 0x0 PUSH1 0x20 DUP3 ADD SWAP1 POP DUP2 DUP2 SUB PUSH1 0x0 DUP4 ADD MSTORE PUSH2 0x11B4 DUP2 DUP5 PUSH2 0x1125 JUMP JUMPDEST SWAP1 POP SWAP3 SWAP2 POP POP JUMP JUMPDEST PUSH1 0x0 PUSH1 0x40 MLOAD SWAP1 POP SWAP1 JUMP JUMPDEST PUSH1 0x0 DUP1 REVERT JUMPDEST PUSH1 0x0 DUP1 REVERT JUMPDEST PUSH2 0x11D9 DUP2 PUSH2 0x1014 JUMP JUMPDEST DUP2 EQ PUSH2 0x11E4 JUMPI PUSH1 0x0 DUP1 REVERT JUMPDEST POP JUMP JUMPDEST PUSH1 0x0 DUP2 CALLDATALOAD SWAP1 POP PUSH2 0x11F6 DUP2 PUSH2 0x11D0 JUMP JUMPDEST SWAP3 SWAP2 POP POP JUMP JUMPDEST PUSH1 0x0 PUSH1 0x20 DUP3 DUP5 SUB SLT ISZERO PUSH2 0x1212 JUMPI PUSH2 0x1211 PUSH2 0x11C6 JUMP JUMPDEST JUMPDEST PUSH1 0x0 PUSH2 0x1220 DUP5 DUP3 DUP6 ADD PUSH2 0x11E7 JUMP JUMPDEST SWAP2 POP POP SWAP3 SWAP2 POP POP JUMP JUMPDEST PUSH1 0x0 DUP2 MLOAD SWAP1 POP SWAP2 SWAP1 POP JUMP JUMPDEST PUSH1 0x0 DUP3 DUP3 MSTORE PUSH1 0x20 DUP3 ADD SWAP1 POP SWAP3 SWAP2 POP POP JUMP JUMPDEST PUSH1 0x0 DUP2 SWAP1 POP PUSH1 0x20 DUP3 ADD SWAP1 POP SWAP2 SWAP1 POP JUMP JUMPDEST PUSH2 0x125E DUP2 PUSH2 0x1014 JUMP JUMPDEST DUP3 MSTORE POP POP JUMP JUMPDEST PUSH1 0x0 PUSH20 0xFFFFFFFFFFFFFFFFFFFFFFFFFFFFFFFFFFFFFFFF DUP3 AND SWAP1 POP SWAP2 SWAP1 POP JUMP JUMPDEST PUSH1 0x0 PUSH2 0x128F DUP3 PUSH2 0x1264 JUMP JUMPDEST SWAP1 POP SWAP2 SWAP1 POP JUMP JUMPDEST PUSH2 0x129F DUP2 PUSH2 0x1284 JUMP JUMPDEST DUP3 MSTORE POP POP JUMP JUMPDEST PUSH1 0x0 PUSH1 0xC0 DUP4 ADD PUSH1 0x0 DUP4 ADD MLOAD PUSH2 0x12BD PUSH1 0x0 DUP7 ADD DUP3 PUSH2 0x1255 JUMP JUMPDEST POP PUSH1 0x20 DUP4 ADD MLOAD PUSH2 0x12D0 PUSH1 0x20 DUP7 ADD DUP3 PUSH2 0x1296 JUMP JUMPDEST POP PUSH1 0x40 DUP4 ADD MLOAD DUP5 DUP3 SUB PUSH1 0x40 DUP7 ADD MSTORE PUSH2 0x12E8 DUP3 DUP3 PUSH2 0x10CB JUMP JUMPDEST SWAP2 POP POP PUSH1 0x60 DUP4 ADD MLOAD PUSH2 0x12FD PUSH1 0x60 DUP7 ADD DUP3 PUSH2 0x1255 JUMP JUMPDEST POP PUSH1 0x80 DUP4 ADD MLOAD PUSH2 0x1310 PUSH1 0x80 DUP7 ADD DUP3 PUSH2 0x1255 JUMP JUMPDEST POP PUSH1 0xA0 DUP4 ADD MLOAD PUSH2 0x1323 PUSH1 0xA0 DUP7 ADD DUP3 PUSH2 0x1255 JUMP JUMPDEST POP DUP1 SWAP2 POP POP SWAP3 SWAP2 POP POP JUMP JUMPDEST PUSH1 0x0 PUSH2 0x133A DUP4 DUP4 PUSH2 0x12A5 JUMP JUMPDEST SWAP1 POP SWAP3 SWAP2 POP POP JUMP JUMPDEST PUSH1 0x0 PUSH1 0x20 DUP3 ADD SWAP1 POP SWAP2 SWAP1 POP JUMP JUMPDEST PUSH1 0x0 PUSH2 0x135A DUP3 PUSH2 0x1229 JUMP JUMPDEST PUSH2 0x1364 DUP2 DUP6 PUSH2 0x1234 JUMP JUMPDEST SWAP4 POP DUP4 PUSH1 0x20 DUP3 MUL DUP6 ADD PUSH2 0x1376 DUP6 PUSH2 0x1245 JUMP JUMPDEST DUP1 PUSH1 0x0 JUMPDEST DUP6 DUP2 LT ISZERO PUSH2 0x13B2 JUMPI DUP5 DUP5 SUB DUP10 MSTORE DUP2 MLOAD PUSH2 0x1393 DUP6 DUP3 PUSH2 0x132E JUMP JUMPDEST SWAP5 POP PUSH2 0x139E DUP4 PUSH2 0x1342 JUMP JUMPDEST SWAP3 POP PUSH1 0x20 DUP11 ADD SWAP10 POP POP PUSH1 0x1 DUP2 ADD SWAP1 POP PUSH2 0x137A JUMP JUMPDEST POP DUP3 SWAP8 POP DUP8 SWAP6 POP POP POP POP POP POP SWAP3 SWAP2 POP POP JUMP JUMPDEST PUSH1 0x0 PUSH1 0x20 DUP3 ADD SWAP1 POP DUP2 DUP2 SUB PUSH1 0x0 DUP4 ADD MSTORE PUSH2 0x13DE DUP2 DUP5 PUSH2 0x134F JUMP JUMPDEST SWAP1 POP SWAP3 SWAP2 POP POP JUMP JUMPDEST PUSH1 0x0 DUP2 MLOAD SWAP1 POP SWAP2 SWAP1 POP JUMP JUMPDEST PUSH1 0x0 DUP3 DUP3 MSTORE PUSH1 0x20 DUP3 ADD SWAP1 POP SWAP3 SWAP2 POP POP JUMP JUMPDEST PUSH1 0x0 DUP2 SWAP1 POP PUSH1 0x20 DUP3 ADD SWAP1 POP SWAP2 SWAP1 POP JUMP JUMPDEST PUSH1 0x0 PUSH2 0x141E DUP4 DUP4 PUSH2 0x1255 JUMP JUMPDEST PUSH1 0x20 DUP4 ADD SWAP1 POP SWAP3 SWAP2 POP POP JUMP JUMPDEST PUSH1 0x0 PUSH1 0x20 DUP3 ADD SWAP1 POP SWAP2 SWAP1 POP JUMP JUMPDEST PUSH1 0x0 PUSH2 0x1442 DUP3 PUSH2 0x13E6 JUMP JUMPDEST PUSH2 0x144C DUP2 DUP6 PUSH2 0x13F1 JUMP JUMPDEST SWAP4 POP PUSH2 0x1457 DUP4 PUSH2 0x1402 JUMP JUMPDEST DUP1 PUSH1 0x0 JUMPDEST DUP4 DUP2 LT ISZERO PUSH2 0x1488 JUMPI DUP2 MLOAD PUSH2 0x146F DUP9 DUP3 PUSH2 0x1412 JUMP JUMPDEST SWAP8 POP PUSH2 0x147A DUP4 PUSH2 0x142A JUMP JUMPDEST SWAP3 POP POP PUSH1 0x1 DUP2 ADD SWAP1 POP PUSH2 0x145B JUMP JUMPDEST POP DUP6 SWAP4 POP POP POP POP SWAP3 SWAP2 POP POP JUMP JUMPDEST PUSH1 0x0 PUSH1 0x20 DUP3 ADD SWAP1 POP DUP2 DUP2 SUB PUSH1 0x0 DUP4 ADD MSTORE PUSH2 0x14AF DUP2 DUP5 PUSH2 0x1437 JUMP JUMPDEST SWAP1 POP SWAP3 SWAP2 POP POP JUMP JUMPDEST PUSH1 0x0 DUP1 REVERT JUMPDEST PUSH1 0x0 DUP1 REVERT JUMPDEST PUSH32 0x4E487B7100000000000000000000000000000000000000000000000000000000 PUSH1 0x0 MSTORE PUSH1 0x41 PUSH1 0x4 MSTORE PUSH1 0x24 PUSH1 0x0 REVERT JUMPDEST PUSH2 0x14F9 DUP3 PUSH2 0x10BA JUMP JUMPDEST DUP2 ADD DUP2 DUP2 LT PUSH8 0xFFFFFFFFFFFFFFFF DUP3 GT OR ISZERO PUSH2 0x1518 JUMPI PUSH2 0x1517 PUSH2 0x14C1 JUMP JUMPDEST JUMPDEST DUP1 PUSH1 0x40 MSTORE POP POP POP JUMP JUMPDEST PUSH1 0x0 PUSH2 0x152B PUSH2 0x11BC JUMP JUMPDEST SWAP1 POP PUSH2 0x1537 DUP3 DUP3 PUSH2 0x14F0 JUMP JUMPDEST SWAP2 SWAP1 POP JUMP JUMPDEST PUSH1 0x0 PUSH8 0xFFFFFFFFFFFFFFFF DUP3 GT ISZERO PUSH2 0x1557 JUMPI PUSH2 0x1556 PUSH2 0x14C1 JUMP JUMPDEST JUMPDEST PUSH2 0x1560 DUP3 PUSH2 0x10BA JUMP JUMPDEST SWAP1 POP PUSH1 0x20 DUP2 ADD SWAP1 POP SWAP2 SWAP1 POP JUMP JUMPDEST DUP3 DUP2 DUP4 CALLDATACOPY PUSH1 0x0 DUP4 DUP4 ADD MSTORE POP POP POP JUMP JUMPDEST PUSH1 0x0 PUSH2 0x158F PUSH2 0x158A DUP5 PUSH2 0x153C JUMP JUMPDEST PUSH2 0x1521 JUMP JUMPDEST SWAP1 POP DUP3 DUP2 MSTORE PUSH1 0x20 DUP2 ADD DUP5 DUP5 DUP5 ADD GT ISZERO PUSH2 0x15AB JUMPI PUSH2 0x15AA PUSH2 0x14BC JUMP JUMPDEST JUMPDEST PUSH2 0x15B6 DUP5 DUP3 DUP6 PUSH2 0x156D JUMP JUMPDEST POP SWAP4 SWAP3 POP POP POP JUMP JUMPDEST PUSH1 0x0 DUP3 PUSH1 0x1F DUP4 ADD SLT PUSH2 0x15D3 JUMPI PUSH2 0x15D2 PUSH2 0x14B7 JUMP JUMPDEST JUMPDEST DUP2 CALLDATALOAD PUSH2 0x15E3 DUP5 DUP3 PUSH1 0x20 DUP7 ADD PUSH2 0x157C JUMP JUMPDEST SWAP2 POP POP SWAP3 SWAP2 POP POP JUMP JUMPDEST PUSH1 0x0 DUP1 PUSH1 0x0 DUP1 PUSH1 0x80 DUP6 DUP8 SUB SLT ISZERO PUSH2 0x1606 JUMPI PUSH2 0x1605 PUSH2 0x11C6 JUMP JUMPDEST JUMPDEST PUSH1 0x0 PUSH2 0x1614 DUP8 DUP3 DUP9 ADD PUSH2 0x11E7 JUMP JUMPDEST SWAP5 POP POP PUSH1 0x20 DUP6 ADD CALLDATALOAD PUSH8 0xFFFFFFFFFFFFFFFF DUP2 GT ISZERO PUSH2 0x1635 JUMPI PUSH2 0x1634 PUSH2 0x11CB JUMP JUMPDEST JUMPDEST PUSH2 0x1641 DUP8 DUP3 DUP9 ADD PUSH2 0x15BE JUMP JUMPDEST SWAP4 POP POP PUSH1 0x40 PUSH2 0x1652 DUP8 DUP3 DUP9 ADD PUSH2 0x11E7 JUMP JUMPDEST SWAP3 POP POP PUSH1 0x60 PUSH2 0x1663 DUP8 DUP3 DUP9 ADD PUSH2 0x11E7 JUMP JUMPDEST SWAP2 POP POP SWAP3 SWAP6 SWAP2 SWAP5 POP SWAP3 POP JUMP JUMPDEST PUSH1 0x0 DUP3 DUP3 MSTORE PUSH1 0x20 DUP3 ADD SWAP1 POP SWAP3 SWAP2 POP POP JUMP JUMPDEST PUSH1 0x0 PUSH2 0x168B DUP3 PUSH2 0x1074 JUMP JUMPDEST PUSH2 0x1695 DUP2 DUP6 PUSH2 0x166F JUMP JUMPDEST SWAP4 POP PUSH2 0x16A5 DUP2 DUP6 PUSH1 0x20 DUP7 ADD PUSH2 0x1090 JUMP JUMPDEST PUSH2 0x16AE DUP2 PUSH2 0x10BA JUMP JUMPDEST DUP5 ADD SWAP2 POP POP SWAP3 SWAP2 POP POP JUMP JUMPDEST PUSH1 0x0 PUSH1 0x20 DUP3 ADD SWAP1 POP DUP2 DUP2 SUB PUSH1 0x0 DUP4 ADD MSTORE PUSH2 0x16D3 DUP2 DUP5 PUSH2 0x1680 JUMP JUMPDEST SWAP1 POP SWAP3 SWAP2 POP POP JUMP JUMPDEST PUSH32 0x4E487B7100000000000000000000000000000000000000000000000000000000 PUSH1 0x0 MSTORE PUSH1 0x32 PUSH1 0x4 MSTORE PUSH1 0x24 PUSH1 0x0 REVERT JUMPDEST PUSH32 0x4E487B7100000000000000000000000000000000000000000000000000000000 PUSH1 0x0 MSTORE PUSH1 0x11 PUSH1 0x4 MSTORE PUSH1 0x24 PUSH1 0x0 REVERT JUMPDEST PUSH1 0x0 PUSH2 0x1744 DUP3 PUSH2 0x1014 JUMP JUMPDEST SWAP2 POP PUSH32 0xFFFFFFFFFFFFFFFFFFFFFFFFFFFFFFFFFFFFFFFFFFFFFFFFFFFFFFFFFFFFFFFF DUP3 SUB PUSH2 0x1776 JUMPI PUSH2 0x1775 PUSH2 0x170A JUMP JUMPDEST JUMPDEST PUSH1 0x1 DUP3 ADD SWAP1 POP SWAP2 SWAP1 POP JUMP JUMPDEST PUSH32 0x4E487B7100000000000000000000000000000000000000000000000000000000 PUSH1 0x0 MSTORE PUSH1 0x22 PUSH1 0x4 MSTORE PUSH1 0x24 PUSH1 0x0 REVERT JUMPDEST PUSH1 0x0 PUSH1 0x2 DUP3 DIV SWAP1 POP PUSH1 0x1 DUP3 AND DUP1 PUSH2 0x17C8 JUMPI PUSH1 0x7F DUP3 AND SWAP2 POP JUMPDEST PUSH1 0x20 DUP3 LT DUP2 SUB PUSH2 0x17DB JUMPI PUSH2 0x17DA PUSH2 0x1781 JUMP JUMPDEST JUMPDEST POP SWAP2 SWAP1 POP JUMP JUMPDEST PUSH1 0x0 PUSH2 0x17EC DUP3 PUSH2 0x1014 JUMP JUMPDEST SWAP2 POP PUSH2 0x17F7 DUP4 PUSH2 0x1014 JUMP JUMPDEST SWAP3 POP DUP3 DUP3 ADD SWAP1 POP DUP1 DUP3 GT ISZERO PUSH2 0x180F JUMPI PUSH2 0x180E PUSH2 0x170A JUMP JUMPDEST JUMPDEST SWAP3 SWAP2 POP POP JUMP JUMPDEST PUSH1 0x0 PUSH2 0x1820 DUP3 PUSH2 0x1014 JUMP JUMPDEST SWAP2 POP PUSH2 0x182B DUP4 PUSH2 0x1014 JUMP JUMPDEST SWAP3 POP DUP3 DUP3 SUB SWAP1 POP DUP2 DUP2 GT ISZERO PUSH2 0x1843 JUMPI PUSH2 0x1842 PUSH2 0x170A JUMP JUMPDEST JUMPDEST SWAP3 SWAP2 POP POP JUMP JUMPDEST PUSH1 0x0 DUP2 SWAP1 POP DUP2 PUSH1 0x0 MSTORE PUSH1 0x20 PUSH1 0x0 KECCAK256 SWAP1 POP SWAP2 SWAP1 POP JUMP JUMPDEST PUSH1 0x0 PUSH1 0x20 PUSH1 0x1F DUP4 ADD DIV SWAP1 POP SWAP2 SWAP1 POP JUMP JUMPDEST PUSH1 0x0 DUP3 DUP3 SHL SWAP1 POP SWAP3 SWAP2 POP POP JUMP JUMPDEST PUSH1 0x0 PUSH1 0x8 DUP4 MUL PUSH2 0x18AB PUSH32 0xFFFFFFFFFFFFFFFFFFFFFFFFFFFFFFFFFFFFFFFFFFFFFFFFFFFFFFFFFFFFFFFF DUP3 PUSH2 0x186E JUMP JUMPDEST PUSH2 0x18B5 DUP7 DUP4 PUSH2 0x186E JUMP JUMPDEST SWAP6 POP DUP1 NOT DUP5 AND SWAP4 POP DUP1 DUP7 AND DUP5 OR SWAP3 POP POP POP SWAP4 SWAP3 POP POP POP JUMP JUMPDEST PUSH1 0x0 DUP2 SWAP1 POP SWAP2 SWAP1 POP JUMP JUMPDEST PUSH1 0x0 PUSH2 0x18F2 PUSH2 0x18ED PUSH2 0x18E8 DUP5 PUSH2 0x1014 JUMP JUMPDEST PUSH2 0x18CD JUMP JUMPDEST PUSH2 0x1014 JUMP JUMPDEST SWAP1 POP SWAP2 SWAP1 POP JUMP JUMPDEST PUSH1 0x0 DUP2 SWAP1 POP SWAP2 SWAP1 POP JUMP JUMPDEST PUSH2 0x190C DUP4 PUSH2 0x18D7 JUMP JUMPDEST PUSH2 0x1920 PUSH2 0x1918 DUP3 PUSH2 0x18F9 JUMP JUMPDEST DUP5 DUP5 SLOAD PUSH2 0x187B JUMP JUMPDEST DUP3 SSTORE POP POP POP POP JUMP JUMPDEST PUSH1 0x0 SWAP1 JUMP JUMPDEST PUSH2 0x1935 PUSH2 0x1928 JUMP JUMPDEST PUSH2 0x1940 DUP2 DUP5 DUP5 PUSH2 0x1903 JUMP JUMPDEST POP POP POP JUMP JUMPDEST JUMPDEST DUP2 DUP2 LT ISZERO PUSH2 0x1964 JUMPI PUSH2 0x1959 PUSH1 0x0 DUP3 PUSH2 0x192D JUMP JUMPDEST PUSH1 0x1 DUP2 ADD SWAP1 POP PUSH2 0x1946 JUMP JUMPDEST POP POP JUMP JUMPDEST PUSH1 0x1F DUP3 GT ISZERO PUSH2 0x19A9 JUMPI PUSH2 0x197A DUP2 PUSH2 0x1849 JUMP JUMPDEST PUSH2 0x1983 DUP5 PUSH2 0x185E JUMP JUMPDEST DUP2 ADD PUSH1 0x20 DUP6 LT ISZERO PUSH2 0x1992 JUMPI DUP2 SWAP1 POP JUMPDEST PUSH2 0x19A6 PUSH2 0x199E DUP6 PUSH2 0x185E JUMP JUMPDEST DUP4 ADD DUP3 PUSH2 0x1945 JUMP JUMPDEST POP POP JUMPDEST POP POP POP JUMP JUMPDEST PUSH1 0x0 DUP3 DUP3 SHR SWAP1 POP SWAP3 SWAP2 POP POP JUMP JUMPDEST PUSH1 0x0 PUSH2 0x19CC PUSH1 0x0 NOT DUP5 PUSH1 0x8 MUL PUSH2 0x19AE JUMP JUMPDEST NOT DUP1 DUP4 AND SWAP2 POP POP SWAP3 SWAP2 POP POP JUMP JUMPDEST PUSH1 0x0 PUSH2 0x19E5 DUP4 DUP4 PUSH2 0x19BB JUMP JUMPDEST SWAP2 POP DUP3 PUSH1 0x2 MUL DUP3 OR SWAP1 POP SWAP3 SWAP2 POP POP JUMP JUMPDEST PUSH2 0x19FE DUP3 PUSH2 0x1074 JUMP JUMPDEST PUSH8 0xFFFFFFFFFFFFFFFF DUP2 GT ISZERO PUSH2 0x1A17 JUMPI PUSH2 0x1A16 PUSH2 0x14C1 JUMP JUMPDEST JUMPDEST PUSH2 0x1A21 DUP3 SLOAD PUSH2 0x17B0 JUMP JUMPDEST PUSH2 0x1A2C DUP3 DUP3 DUP6 PUSH2 0x1968 JUMP JUMPDEST PUSH1 0x0 PUSH1 0x20 SWAP1 POP PUSH1 0x1F DUP4 GT PUSH1 0x1 DUP2 EQ PUSH2 0x1A5F JUMPI PUSH1 0x0 DUP5 ISZERO PUSH2 0x1A4D JUMPI DUP3 DUP8 ADD MLOAD SWAP1 POP JUMPDEST PUSH2 0x1A57 DUP6 DUP3 PUSH2 0x19D9 JUMP JUMPDEST DUP7 SSTORE POP PUSH2 0x1ABF JUMP JUMPDEST PUSH1 0x1F NOT DUP5 AND PUSH2 0x1A6D DUP7 PUSH2 0x1849 JUMP JUMPDEST PUSH1 0x0 JUMPDEST DUP3 DUP2 LT ISZERO PUSH2 0x1A95 JUMPI DUP5 DUP10 ADD MLOAD DUP3 SSTORE PUSH1 0x1 DUP3 ADD SWAP2 POP PUSH1 0x20 DUP6 ADD SWAP5 POP PUSH1 0x20 DUP2 ADD SWAP1 POP PUSH2 0x1A70 JUMP JUMPDEST DUP7 DUP4 LT ISZERO PUSH2 0x1AB2 JUMPI DUP5 DUP10 ADD MLOAD PUSH2 0x1AAE PUSH1 0x1F DUP10 AND DUP3 PUSH2 0x19BB JUMP JUMPDEST DUP4 SSTORE POP JUMPDEST PUSH1 0x1 PUSH1 0x2 DUP9 MUL ADD DUP9 SSTORE POP POP POP JUMPDEST POP POP POP POP POP POP JUMP JUMPDEST PUSH32 0x7B00000000000000000000000000000000000000000000000000000000000000 DUP2 MSTORE POP JUMP JUMPDEST PUSH32 0x276E6F6D6272654576656E746F273A2000000000000000000000000000000000 DUP2 MSTORE POP JUMP JUMPDEST PUSH32 0x2027000000000000000000000000000000000000000000000000000000000000 DUP2 MSTORE POP JUMP JUMPDEST PUSH1 0x0 DUP2 SWAP1 POP SWAP3 SWAP2 POP POP JUMP JUMPDEST PUSH1 0x0 DUP2 SLOAD PUSH2 0x1B51 DUP2 PUSH2 0x17B0 JUMP JUMPDEST PUSH2 0x1B5B DUP2 DUP7 PUSH2 0x1B39 JUMP JUMPDEST SWAP5 POP PUSH1 0x1 DUP3 AND PUSH1 0x0 DUP2 EQ PUSH2 0x1B76 JUMPI PUSH1 0x1 DUP2 EQ PUSH2 0x1B8B JUMPI PUSH2 0x1BBE JUMP JUMPDEST PUSH1 0xFF NOT DUP4 AND DUP7 MSTORE DUP2 ISZERO ISZERO DUP3 MUL DUP7 ADD SWAP4 POP PUSH2 0x1BBE JUMP JUMPDEST PUSH2 0x1B94 DUP6 PUSH2 0x1849 JUMP JUMPDEST PUSH1 0x0 JUMPDEST DUP4 DUP2 LT ISZERO PUSH2 0x1BB6 JUMPI DUP2 SLOAD DUP2 DUP10 ADD MSTORE PUSH1 0x1 DUP3 ADD SWAP2 POP PUSH1 0x20 DUP2 ADD SWAP1 POP PUSH2 0x1B97 JUMP JUMPDEST DUP4 DUP9 ADD SWAP6 POP POP POP JUMPDEST POP POP POP SWAP3 SWAP2 POP POP JUMP JUMPDEST PUSH32 0x272C000000000000000000000000000000000000000000000000000000000000 DUP2 MSTORE POP JUMP JUMPDEST PUSH32 0x2766656368614576656E746F273A200000000000000000000000000000000000 DUP2 MSTORE POP JUMP JUMPDEST PUSH1 0x0 PUSH2 0x1C1E DUP3 PUSH2 0x1074 JUMP JUMPDEST PUSH2 0x1C28 DUP2 DUP6 PUSH2 0x1B39 JUMP JUMPDEST SWAP4 POP PUSH2 0x1C38 DUP2 DUP6 PUSH1 0x20 DUP7 ADD PUSH2 0x1090 JUMP JUMPDEST DUP1 DUP5 ADD SWAP2 POP POP SWAP3 SWAP2 POP POP JUMP JUMPDEST PUSH32 0x277469636B657473446973706F6E69626C6573273A2000000000000000000000 DUP2 MSTORE POP JUMP JUMPDEST PUSH32 0x2770726563696F426F6C65746F273A2000000000000000000000000000000000 DUP2 MSTORE POP JUMP JUMPDEST PUSH32 0x7D00000000000000000000000000000000000000000000000000000000000000 DUP2 MSTORE POP JUMP JUMPDEST PUSH1 0x0 PUSH2 0x1CC1 DUP3 PUSH2 0x1AC7 JUMP JUMPDEST PUSH1 0x1 DUP3 ADD SWAP2 POP PUSH2 0x1CD0 DUP3 PUSH2 0x1AED JUMP JUMPDEST PUSH1 0x10 DUP3 ADD SWAP2 POP PUSH2 0x1CDF DUP3 PUSH2 0x1B13 JUMP JUMPDEST PUSH1 0x2 DUP3 ADD SWAP2 POP PUSH2 0x1CEF DUP3 DUP8 PUSH2 0x1B44 JUMP JUMPDEST SWAP2 POP PUSH2 0x1CFA DUP3 PUSH2 0x1BC7 JUMP JUMPDEST PUSH1 0x2 DUP3 ADD SWAP2 POP PUSH2 0x1D09 DUP3 PUSH2 0x1BED JUMP JUMPDEST PUSH1 0xF DUP3 ADD SWAP2 POP PUSH2 0x1D18 DUP3 PUSH2 0x1B13 JUMP JUMPDEST PUSH1 0x2 DUP3 ADD SWAP2 POP PUSH2 0x1D28 DUP3 DUP7 PUSH2 0x1C13 JUMP JUMPDEST SWAP2 POP PUSH2 0x1D33 DUP3 PUSH2 0x1BC7 JUMP JUMPDEST PUSH1 0x2 DUP3 ADD SWAP2 POP PUSH2 0x1D42 DUP3 PUSH2 0x1C44 JUMP JUMPDEST PUSH1 0x16 DUP3 ADD SWAP2 POP PUSH2 0x1D51 DUP3 PUSH2 0x1B13 JUMP JUMPDEST PUSH1 0x2 DUP3 ADD SWAP2 POP PUSH2 0x1D61 DUP3 DUP6 PUSH2 0x1C13 JUMP JUMPDEST SWAP2 POP PUSH2 0x1D6C DUP3 PUSH2 0x1BC7 JUMP JUMPDEST PUSH1 0x2 DUP3 ADD SWAP2 POP PUSH2 0x1D7B DUP3 PUSH2 0x1C6A JUMP JUMPDEST PUSH1 0x10 DUP3 ADD SWAP2 POP PUSH2 0x1D8A DUP3 PUSH2 0x1B13 JUMP JUMPDEST PUSH1 0x2 DUP3 ADD SWAP2 POP PUSH2 0x1D9A DUP3 DUP5 PUSH2 0x1C13 JUMP JUMPDEST SWAP2 POP PUSH2 0x1DA5 DUP3 PUSH2 0x1BC7 JUMP JUMPDEST PUSH1 0x2 DUP3 ADD SWAP2 POP PUSH2 0x1DB4 DUP3 PUSH2 0x1C90 JUMP JUMPDEST PUSH1 0x1 DUP3 ADD SWAP2 POP DUP2 SWAP1 POP SWAP6 SWAP5 POP POP POP POP POP JUMP JUMPDEST PUSH32 0x4E487B7100000000000000000000000000000000000000000000000000000000 PUSH1 0x0 MSTORE PUSH1 0x12 PUSH1 0x4 MSTORE PUSH1 0x24 PUSH1 0x0 REVERT JUMPDEST PUSH1 0x0 PUSH2 0x1E00 DUP3 PUSH2 0x1014 JUMP JUMPDEST SWAP2 POP PUSH2 0x1E0B DUP4 PUSH2 0x1014 JUMP JUMPDEST SWAP3 POP DUP3 PUSH2 0x1E1B JUMPI PUSH2 0x1E1A PUSH2 0x1DC6 JUMP JUMPDEST JUMPDEST DUP3 DUP3 DIV SWAP1 POP SWAP3 SWAP2 POP POP JUMP JUMPDEST PUSH1 0x0 PUSH2 0x1E31 DUP3 PUSH2 0x1014 JUMP JUMPDEST SWAP2 POP PUSH2 0x1E3C DUP4 PUSH2 0x1014 JUMP JUMPDEST SWAP3 POP DUP3 DUP3 MUL PUSH2 0x1E4A DUP2 PUSH2 0x1014 JUMP JUMPDEST SWAP2 POP DUP3 DUP3 DIV DUP5 EQ DUP4 ISZERO OR PUSH2 0x1E61 JUMPI PUSH2 0x1E60 PUSH2 0x170A JUMP JUMPDEST JUMPDEST POP SWAP3 SWAP2 POP POP JUMP JUMPDEST PUSH1 0x0 PUSH1 0xFF DUP3 AND SWAP1 POP SWAP2 SWAP1 POP JUMP JUMPDEST PUSH1 0x0 PUSH2 0x1E80 DUP3 PUSH2 0x1E68 JUMP JUMPDEST SWAP2 POP PUSH2 0x1E8B DUP4 PUSH2 0x1E68 JUMP JUMPDEST SWAP3 POP DUP3 DUP3 ADD SWAP1 POP PUSH1 0xFF DUP2 GT ISZERO PUSH2 0x1EA4 JUMPI PUSH2 0x1EA3 PUSH2 0x170A JUMP JUMPDEST JUMPDEST SWAP3 SWAP2 POP POP JUMP INVALID LOG2 PUSH5 0x6970667358 0x22 SLT KECCAK256 BYTE CALLVALUE 0xED INVALID 0x5C 0x1E AND BLOCKHASH 0xE8 GASLIMIT 0xB7 TIMESTAMP DUP4 DUP16 0xB3 0xA7 0xD3 0xED RETURNDATASIZE MSIZE 0xEE KECCAK256 PUSH1 0x7D 0x5C 0xC1 PUSH26 0x1182C473B164736F6C6343000811003300000000000000000000 "},"methodIdentifiers":{"comprarBoleto(uint256)":"7f30e11c","crearEvento(uint256,string,uint256,uint256)":"d51da6d1","geEventosActivos()":"cdab3012","geEventosActivos1()":"6ecbdf67","getBoletosCompradosPorUsuario()":"301e4ab9","getBoletosCompradosPorUsuarioContador()":"d25c7fdf","getBoletosRestantesDelEvento(uint256)":"7b7b56bd","getBoletosRestantesPorUsuario(uint256)":"5d9b5b11","getCantidadEventos()":"61aa3836","getCantidadEventosActivos()":"18db3db6","getDescripcionDeEvento(uint256)":"dc8d7c4d","getTodosLosEventos()":"e749f75c"}}}}}