{
  "_format": "hh-sol-artifact-1",
  "contractName": "eventos",
  "sourceName": "contracts/eventos.sol",
  "abi": [
    {
      "inputs": [
        {
          "internalType": "uint256",
          "name": "id_evento",
          "type": "uint256"
        }
      ],
      "name": "comprarBoleto",
      "outputs": [],
      "stateMutability": "payable",
      "type": "function"
    },
    {
      "inputs": [
        {
          "internalType": "uint256",
          "name": "boletosACrear",
          "type": "uint256"
        },
        {
          "internalType": "string",
          "name": "nombreEvento",
          "type": "string"
        },
        {
          "internalType": "uint256",
          "name": "fechaEvento",
          "type": "uint256"
        },
        {
          "internalType": "uint256",
          "name": "precioBoleto",
          "type": "uint256"
        }
      ],
      "name": "crearEvento",
      "outputs": [],
      "stateMutability": "payable",
      "type": "function"
    },
    {
      "inputs": [],
      "name": "geEventosActivos",
      "outputs": [
        {
          "internalType": "uint256[]",
          "name": "",
          "type": "uint256[]"
        }
      ],
      "stateMutability": "view",
      "type": "function"
    },
    {
      "inputs": [],
      "name": "geEventosActivos1",
      "outputs": [
        {
          "components": [
            {
              "internalType": "uint256",
              "name": "identificadorEvento",
              "type": "uint256"
            },
            {
              "internalType": "address",
              "name": "organizador",
              "type": "address"
            },
            {
              "internalType": "string",
              "name": "nombreEvento",
              "type": "string"
            },
            {
              "internalType": "uint256",
              "name": "fechaEvento",
              "type": "uint256"
            },
            {
              "internalType": "uint256",
              "name": "ticketsDisponibles",
              "type": "uint256"
            },
            {
              "internalType": "uint256",
              "name": "precioBoleto",
              "type": "uint256"
            }
          ],
          "internalType": "struct eventos.Evento[]",
          "name": "",
          "type": "tuple[]"
        }
      ],
      "stateMutability": "view",
      "type": "function"
    },
    {
      "inputs": [],
      "name": "getBoletosCompradosPorUsuario",
      "outputs": [
        {
          "internalType": "string[]",
          "name": "",
          "type": "string[]"
        }
      ],
      "stateMutability": "view",
      "type": "function"
    },
    {
      "inputs": [],
      "name": "getBoletosCompradosPorUsuarioContador",
      "outputs": [
        {
          "internalType": "uint256",
          "name": "",
          "type": "uint256"
        }
      ],
      "stateMutability": "view",
      "type": "function"
    },
    {
      "inputs": [
        {
          "internalType": "uint256",
          "name": "id_evento",
          "type": "uint256"
        }
      ],
      "name": "getBoletosRestantesDelEvento",
      "outputs": [
        {
          "internalType": "uint256",
          "name": "",
          "type": "uint256"
        }
      ],
      "stateMutability": "view",
      "type": "function"
    },
    {
      "inputs": [
        {
          "internalType": "uint256",
          "name": "id_evento",
          "type": "uint256"
        }
      ],
      "name": "getBoletosRestantesPorUsuario",
      "outputs": [
        {
          "internalType": "uint256",
          "name": "",
          "type": "uint256"
        }
      ],
      "stateMutability": "view",
      "type": "function"
    },
    {
      "inputs": [],
      "name": "getCantidadEventos",
      "outputs": [
        {
          "internalType": "uint256",
          "name": "",
          "type": "uint256"
        }
      ],
      "stateMutability": "view",
      "type": "function"
    },
    {
      "inputs": [],
      "name": "getCantidadEventosActivos",
      "outputs": [
        {
          "internalType": "uint256",
          "name": "",
          "type": "uint256"
        }
      ],
      "stateMutability": "view",
      "type": "function"
    },
    {
      "inputs": [
        {
          "internalType": "uint256",
          "name": "evento_id",
          "type": "uint256"
        }
      ],
      "name": "getDescripcionDeEvento",
      "outputs": [
        {
          "internalType": "string",
          "name": "",
          "type": "string"
        }
      ],
      "stateMutability": "view",
      "type": "function"
    },
    {
      "inputs": [],
      "name": "getTodosLosEventos",
      "outputs": [
        {
          "internalType": "uint256[]",
          "name": "",
          "type": "uint256[]"
        }
      ],
      "stateMutability": "view",
      "type": "function"
    }
  ],
  "bytecode": "0x608060405234801561001057600080fd5b50611f93806100206000396000f3fe6080604052600436106100a75760003560e01c80637f30e11c116100645780637f30e11c146101d2578063cdab3012146101ee578063d25c7fdf14610219578063d51da6d114610244578063dc8d7c4d14610260578063e749f75c1461029d576100a7565b806318db3db6146100ac578063301e4ab9146100d75780635d9b5b111461010257806361aa38361461013f5780636ecbdf671461016a5780637b7b56bd14610195575b600080fd5b3480156100b857600080fd5b506100c16102c8565b6040516100ce91906110e0565b60405180910390f35b3480156100e357600080fd5b506100ec610335565b6040516100f9919061124d565b60405180910390f35b34801561010e57600080fd5b50610129600480360381019061012491906112af565b61053b565b60405161013691906110e0565b60405180910390f35b34801561014b57600080fd5b50610154610634565b60405161016191906110e0565b60405180910390f35b34801561017657600080fd5b5061017f610641565b60405161018c9190611477565b60405180910390f35b3480156101a157600080fd5b506101bc60048036038101906101b791906112af565b610863565b6040516101c991906110e0565b60405180910390f35b6101ec60048036038101906101e791906112af565b610892565b005b3480156101fa57600080fd5b50610203610a67565b6040516102109190611548565b60405180910390f35b34801561022557600080fd5b5061022e610b45565b60405161023b91906110e0565b60405180910390f35b61025e6004803603810190610259919061169f565b610bff565b005b34801561026c57600080fd5b50610287600480360381019061028291906112af565b610d41565b604051610294919061176c565b60405180910390f35b3480156102a957600080fd5b506102b2610e1b565b6040516102bf9190611548565b60405180910390f35b6000806000905060005b60018054905081101561032d5742600182815481106102f4576102f361178e565b5b9060005260206000209060060201600301541061031a578180610316906117ec565b9250505b8080610325906117ec565b9150506102d2565b508091505090565b60606000610341610b45565b905060008167ffffffffffffffff81111561035f5761035e611574565b5b60405190808252806020026020018201604052801561039257816020015b606081526020019060019003908161037d5790505b5090506000805b600080549050811015610531573373ffffffffffffffffffffffffffffffffffffffff16600082815481106103d1576103d061178e565b5b906000526020600020906003020160020160009054906101000a900473ffffffffffffffffffffffffffffffffffffffff1673ffffffffffffffffffffffffffffffffffffffff160361051e576001600082815481106104345761043361178e565b5b906000526020600020906003020160010154815481106104575761045661178e565b5b9060005260206000209060060201600201805461047390611863565b80601f016020809104026020016040519081016040528092919081815260200182805461049f90611863565b80156104ec5780601f106104c1576101008083540402835291602001916104ec565b820191906000526020600020905b8154815290600101906020018083116104cf57829003601f168201915b50505050508383815181106105045761050361178e565b5b6020026020010181905250818061051a906117ec565b9250505b8080610529906117ec565b915050610399565b5081935050505090565b6000806000905060005b60008054905081101561061e573373ffffffffffffffffffffffffffffffffffffffff166000828154811061057d5761057c61178e565b5b906000526020600020906003020160020160009054906101000a900473ffffffffffffffffffffffffffffffffffffffff1673ffffffffffffffffffffffffffffffffffffffff161480156105f65750600081815481106105e1576105e061178e565b5b90600052602060002090600302016001015484145b1561060b576001826106089190611894565b91505b8080610616906117ec565b915050610545565b5080600361062c91906118c8565b915050919050565b6000600180549050905090565b6060600060018054905067ffffffffffffffff81111561066457610663611574565b5b60405190808252806020026020018201604052801561069d57816020015b61068a611044565b8152602001906001900390816106825790505b5090506000805b60018054905081101561085a5742600182815481106106c6576106c561178e565b5b9060005260206000209060060201600301541061084757600181815481106106f1576106f061178e565b5b90600052602060002090600602016040518060c0016040529081600082015481526020016001820160009054906101000a900473ffffffffffffffffffffffffffffffffffffffff1673ffffffffffffffffffffffffffffffffffffffff1673ffffffffffffffffffffffffffffffffffffffff16815260200160028201805461077a90611863565b80601f01602080910402602001604051908101604052809291908181526020018280546107a690611863565b80156107f35780601f106107c8576101008083540402835291602001916107f3565b820191906000526020600020905b8154815290600101906020018083116107d657829003601f168201915b50505050508152602001600382015481526020016004820154815260200160058201548152505083838151811061082d5761082c61178e565b5b60200260200101819052508180610843906117ec565b9250505b8080610852906117ec565b9150506106a4565b50819250505090565b6000600182815481106108795761087861178e565b5b9060005260206000209060060201600401549050919050565b3481600061089e610641565b90506000805b82518110156108ee57838382815181106108c1576108c061178e565b5b602002602001015160000151036108db57600191506108ee565b80806108e6906117ec565b9150506108a4565b50600181148015610907575060006109058461053b565b115b80156109385750600183815481106109225761092161178e565b5b9060005260206000209060060201600501548410155b61094157600080fd5b610949611090565b6000805490508160000181815250508581602001818152505033816040019073ffffffffffffffffffffffffffffffffffffffff16908173ffffffffffffffffffffffffffffffffffffffff16815250506000819080600181540180825580915050600190039060005260206000209060030201600090919091909150600082015181600001556020820151816001015560408201518160020160006101000a81548173ffffffffffffffffffffffffffffffffffffffff021916908373ffffffffffffffffffffffffffffffffffffffff16021790555050506001808781548110610a3857610a3761178e565b5b90600052602060002090600602016004016000828254610a5891906118c8565b92505081905550505050505050565b60606000610a736102c8565b67ffffffffffffffff811115610a8c57610a8b611574565b5b604051908082528060200260200182016040528015610aba5781602001602082028036833780820191505090505b5090506000805b600180549050811015610b3c574260018281548110610ae357610ae261178e565b5b90600052602060002090600602016003015410610b295780838381518110610b0e57610b0d61178e565b5b6020026020010181815250508180610b25906117ec565b9250505b8080610b34906117ec565b915050610ac1565b50819250505090565b6000806000905060005b600080549050811015610bf7573373ffffffffffffffffffffffffffffffffffffffff1660008281548110610b8757610b8661178e565b5b906000526020600020906003020160020160009054906101000a900473ffffffffffffffffffffffffffffffffffffffff1673ffffffffffffffffffffffffffffffffffffffff1603610be457600182610be19190611894565b91505b8080610bef906117ec565b915050610b4f565b508091505090565b34846000821015610c0f57600080fd5b610c17611044565b60018054905081600001818152505033816020019073ffffffffffffffffffffffffffffffffffffffff16908173ffffffffffffffffffffffffffffffffffffffff16815250508581604001819052508481606001818152505086816080018181525050838160a001818152505060018190806001815401808255809150506001900390600052602060002090600602016000909190919091506000820151816000015560208201518160010160006101000a81548173ffffffffffffffffffffffffffffffffffffffff021916908373ffffffffffffffffffffffffffffffffffffffff1602179055506040820151816002019081610d179190611aa8565b50606082015181600301556080820151816004015560a08201518160050155505050505050505050565b606060018281548110610d5757610d5661178e565b5b9060005260206000209060060201600201610d9660018481548110610d7f57610d7e61178e565b5b906000526020600020906006020160030154610ebc565b610dc460018581548110610dad57610dac61178e565b5b906000526020600020906006020160040154610ebc565b610df260018681548110610ddb57610dda61178e565b5b906000526020600020906006020160050154610ebc565b604051602001610e059493929190611d69565b6040516020818303038152906040529050919050565b60606000610e276102c8565b67ffffffffffffffff811115610e4057610e3f611574565b5b604051908082528060200260200182016040528015610e6e5781602001602082028036833780820191505090505b50905060005b600180549050811015610eb45780828281518110610e9557610e9461178e565b5b6020026020010181815250508080610eac906117ec565b915050610e74565b508091505090565b606060008203610f03576040518060400160405280600181526020017f3000000000000000000000000000000000000000000000000000000000000000815250905061103f565b600082905060005b60008214610f35578080610f1e906117ec565b915050600a82610f2e9190611ea8565b9150610f0b565b60008167ffffffffffffffff811115610f5157610f50611574565b5b6040519080825280601f01601f191660200182016040528015610f835781602001600182028036833780820191505090505b50905060008290505b6000861461103757600181610fa191906118c8565b90506000600a8088610fb39190611ea8565b610fbd9190611ed9565b87610fc891906118c8565b6030610fd49190611f28565b905060008160f81b905080848481518110610ff257610ff161178e565b5b60200101907effffffffffffffffffffffffffffffffffffffffffffffffffffffffffffff1916908160001a905350600a8861102e9190611ea8565b97505050610f8c565b819450505050505b919050565b6040518060c0016040528060008152602001600073ffffffffffffffffffffffffffffffffffffffff168152602001606081526020016000815260200160008152602001600081525090565b60405180606001604052806000815260200160008152602001600073ffffffffffffffffffffffffffffffffffffffff1681525090565b6000819050919050565b6110da816110c7565b82525050565b60006020820190506110f560008301846110d1565b92915050565b600081519050919050565b600082825260208201905092915050565b6000819050602082019050919050565b600081519050919050565b600082825260208201905092915050565b60005b83811015611161578082015181840152602081019050611146565b60008484015250505050565b6000601f19601f8301169050919050565b600061118982611127565b6111938185611132565b93506111a3818560208601611143565b6111ac8161116d565b840191505092915050565b60006111c3838361117e565b905092915050565b6000602082019050919050565b60006111e3826110fb565b6111ed8185611106565b9350836020820285016111ff85611117565b8060005b8581101561123b578484038952815161121c85826111b7565b9450611227836111cb565b925060208a01995050600181019050611203565b50829750879550505050505092915050565b6000602082019050818103600083015261126781846111d8565b905092915050565b6000604051905090565b600080fd5b600080fd5b61128c816110c7565b811461129757600080fd5b50565b6000813590506112a981611283565b92915050565b6000602082840312156112c5576112c4611279565b5b60006112d38482850161129a565b91505092915050565b600081519050919050565b600082825260208201905092915050565b6000819050602082019050919050565b611311816110c7565b82525050565b600073ffffffffffffffffffffffffffffffffffffffff82169050919050565b600061134282611317565b9050919050565b61135281611337565b82525050565b600060c0830160008301516113706000860182611308565b5060208301516113836020860182611349565b506040830151848203604086015261139b828261117e565b91505060608301516113b06060860182611308565b5060808301516113c36080860182611308565b5060a08301516113d660a0860182611308565b508091505092915050565b60006113ed8383611358565b905092915050565b6000602082019050919050565b600061140d826112dc565b61141781856112e7565b935083602082028501611429856112f8565b8060005b85811015611465578484038952815161144685826113e1565b9450611451836113f5565b925060208a0199505060018101905061142d565b50829750879550505050505092915050565b600060208201905081810360008301526114918184611402565b905092915050565b600081519050919050565b600082825260208201905092915050565b6000819050602082019050919050565b60006114d18383611308565b60208301905092915050565b6000602082019050919050565b60006114f582611499565b6114ff81856114a4565b935061150a836114b5565b8060005b8381101561153b57815161152288826114c5565b975061152d836114dd565b92505060018101905061150e565b5085935050505092915050565b6000602082019050818103600083015261156281846114ea565b905092915050565b600080fd5b600080fd5b7f4e487b7100000000000000000000000000000000000000000000000000000000600052604160045260246000fd5b6115ac8261116d565b810181811067ffffffffffffffff821117156115cb576115ca611574565b5b80604052505050565b60006115de61126f565b90506115ea82826115a3565b919050565b600067ffffffffffffffff82111561160a57611609611574565b5b6116138261116d565b9050602081019050919050565b82818337600083830152505050565b600061164261163d846115ef565b6115d4565b90508281526020810184848401111561165e5761165d61156f565b5b611669848285611620565b509392505050565b600082601f8301126116865761168561156a565b5b813561169684826020860161162f565b91505092915050565b600080600080608085870312156116b9576116b8611279565b5b60006116c78782880161129a565b945050602085013567ffffffffffffffff8111156116e8576116e761127e565b5b6116f487828801611671565b93505060406117058782880161129a565b92505060606117168782880161129a565b91505092959194509250565b600082825260208201905092915050565b600061173e82611127565b6117488185611722565b9350611758818560208601611143565b6117618161116d565b840191505092915050565b600060208201905081810360008301526117868184611733565b905092915050565b7f4e487b7100000000000000000000000000000000000000000000000000000000600052603260045260246000fd5b7f4e487b7100000000000000000000000000000000000000000000000000000000600052601160045260246000fd5b60006117f7826110c7565b91507fffffffffffffffffffffffffffffffffffffffffffffffffffffffffffffffff8203611829576118286117bd565b5b600182019050919050565b7f4e487b7100000000000000000000000000000000000000000000000000000000600052602260045260246000fd5b6000600282049050600182168061187b57607f821691505b60208210810361188e5761188d611834565b5b50919050565b600061189f826110c7565b91506118aa836110c7565b92508282019050808211156118c2576118c16117bd565b5b92915050565b60006118d3826110c7565b91506118de836110c7565b92508282039050818111156118f6576118f56117bd565b5b92915050565b60008190508160005260206000209050919050565b60006020601f8301049050919050565b600082821b905092915050565b60006008830261195e7fffffffffffffffffffffffffffffffffffffffffffffffffffffffffffffffff82611921565b6119688683611921565b95508019841693508086168417925050509392505050565b6000819050919050565b60006119a56119a061199b846110c7565b611980565b6110c7565b9050919050565b6000819050919050565b6119bf8361198a565b6119d36119cb826119ac565b84845461192e565b825550505050565b600090565b6119e86119db565b6119f38184846119b6565b505050565b5b81811015611a1757611a0c6000826119e0565b6001810190506119f9565b5050565b601f821115611a5c57611a2d816118fc565b611a3684611911565b81016020851015611a45578190505b611a59611a5185611911565b8301826119f8565b50505b505050565b600082821c905092915050565b6000611a7f60001984600802611a61565b1980831691505092915050565b6000611a988383611a6e565b9150826002028217905092915050565b611ab182611127565b67ffffffffffffffff811115611aca57611ac9611574565b5b611ad48254611863565b611adf828285611a1b565b600060209050601f831160018114611b125760008415611b00578287015190505b611b0a8582611a8c565b865550611b72565b601f198416611b20866118fc565b60005b82811015611b4857848901518255600182019150602085019450602081019050611b23565b86831015611b655784890151611b61601f891682611a6e565b8355505b6001600288020188555050505b505050505050565b7f7b00000000000000000000000000000000000000000000000000000000000000815250565b7f276e6f6d6272654576656e746f273a2000000000000000000000000000000000815250565b7f2027000000000000000000000000000000000000000000000000000000000000815250565b600081905092915050565b60008154611c0481611863565b611c0e8186611bec565b94506001821660008114611c295760018114611c3e57611c71565b60ff1983168652811515820286019350611c71565b611c47856118fc565b60005b83811015611c6957815481890152600182019150602081019050611c4a565b838801955050505b50505092915050565b7f272c000000000000000000000000000000000000000000000000000000000000815250565b7f2766656368614576656e746f273a200000000000000000000000000000000000815250565b6000611cd182611127565b611cdb8185611bec565b9350611ceb818560208601611143565b80840191505092915050565b7f277469636b657473446973706f6e69626c6573273a2000000000000000000000815250565b7f2770726563696f426f6c65746f273a2000000000000000000000000000000000815250565b7f7d00000000000000000000000000000000000000000000000000000000000000815250565b6000611d7482611b7a565b600182019150611d8382611ba0565b601082019150611d9282611bc6565b600282019150611da28287611bf7565b9150611dad82611c7a565b600282019150611dbc82611ca0565b600f82019150611dcb82611bc6565b600282019150611ddb8286611cc6565b9150611de682611c7a565b600282019150611df582611cf7565b601682019150611e0482611bc6565b600282019150611e148285611cc6565b9150611e1f82611c7a565b600282019150611e2e82611d1d565b601082019150611e3d82611bc6565b600282019150611e4d8284611cc6565b9150611e5882611c7a565b600282019150611e6782611d43565b60018201915081905095945050505050565b7f4e487b7100000000000000000000000000000000000000000000000000000000600052601260045260246000fd5b6000611eb3826110c7565b9150611ebe836110c7565b925082611ece57611ecd611e79565b5b828204905092915050565b6000611ee4826110c7565b9150611eef836110c7565b9250828202611efd816110c7565b91508282048414831517611f1457611f136117bd565b5b5092915050565b600060ff82169050919050565b6000611f3382611f1b565b9150611f3e83611f1b565b9250828201905060ff811115611f5757611f566117bd565b5b9291505056fea264697066735822122060082f3b586bbd3751e888a65a234105849c9b172d6dbeb7c2a06498b83b8e8b64736f6c63430008110033",
  "linkReferences": {},
  "deployedLinkReferences": {}
}