{
  "_format": "hh-sol-artifact-1",
  "contractName": "eventos",
  "sourceName": "contracts/eventos.sol",
  "abi": [
    {
      "inputs": [
        {
          "internalType": "uint256",
          "name": "id_evento",
          "type": "uint256"
        }
      ],
      "name": "comprarBoleto",
      "outputs": [],
      "stateMutability": "payable",
      "type": "function"
    },
    {
      "inputs": [
        {
          "internalType": "uint256",
          "name": "boletosACrear",
          "type": "uint256"
        },
        {
          "internalType": "string",
          "name": "nombreEvento",
          "type": "string"
        },
        {
          "internalType": "uint256",
          "name": "fechaEvento",
          "type": "uint256"
        },
        {
          "internalType": "uint256",
          "name": "precioBoleto",
          "type": "uint256"
        }
      ],
      "name": "crearEvento",
      "outputs": [],
      "stateMutability": "payable",
      "type": "function"
    },
    {
      "inputs": [],
      "name": "geEventosActivos",
      "outputs": [
        {
          "components": [
            {
              "internalType": "uint256",
              "name": "identificadorEvento",
              "type": "uint256"
            },
            {
              "internalType": "address",
              "name": "organizador",
              "type": "address"
            },
            {
              "internalType": "string",
              "name": "nombreEvento",
              "type": "string"
            },
            {
              "internalType": "uint256",
              "name": "fechaEvento",
              "type": "uint256"
            },
            {
              "internalType": "uint256",
              "name": "ticketsDisponibles",
              "type": "uint256"
            },
            {
              "internalType": "uint256",
              "name": "precioBoleto",
              "type": "uint256"
            }
          ],
          "internalType": "struct eventos.Evento[]",
          "name": "",
          "type": "tuple[]"
        }
      ],
      "stateMutability": "view",
      "type": "function"
    },
    {
      "inputs": [],
      "name": "getBoletosCompradosPorUsuario",
      "outputs": [
        {
          "components": [
            {
              "internalType": "uint256",
              "name": "identificadorEvento",
              "type": "uint256"
            },
            {
              "internalType": "address",
              "name": "organizador",
              "type": "address"
            },
            {
              "internalType": "string",
              "name": "nombreEvento",
              "type": "string"
            },
            {
              "internalType": "uint256",
              "name": "fechaEvento",
              "type": "uint256"
            },
            {
              "internalType": "uint256",
              "name": "ticketsDisponibles",
              "type": "uint256"
            },
            {
              "internalType": "uint256",
              "name": "precioBoleto",
              "type": "uint256"
            }
          ],
          "internalType": "struct eventos.Evento[]",
          "name": "",
          "type": "tuple[]"
        }
      ],
      "stateMutability": "view",
      "type": "function"
    },
    {
      "inputs": [],
      "name": "getBoletosCompradosPorUsuarioContador",
      "outputs": [
        {
          "internalType": "uint256",
          "name": "",
          "type": "uint256"
        }
      ],
      "stateMutability": "view",
      "type": "function"
    },
    {
      "inputs": [
        {
          "internalType": "uint256",
          "name": "id_evento",
          "type": "uint256"
        }
      ],
      "name": "getBoletosRestantesDelEvento",
      "outputs": [
        {
          "internalType": "uint256",
          "name": "",
          "type": "uint256"
        }
      ],
      "stateMutability": "view",
      "type": "function"
    },
    {
      "inputs": [
        {
          "internalType": "uint256",
          "name": "id_evento",
          "type": "uint256"
        }
      ],
      "name": "getBoletosRestantesPorUsuario",
      "outputs": [
        {
          "internalType": "uint256",
          "name": "",
          "type": "uint256"
        }
      ],
      "stateMutability": "view",
      "type": "function"
    },
    {
      "inputs": [],
      "name": "getCantidadEventos",
      "outputs": [
        {
          "internalType": "uint256",
          "name": "",
          "type": "uint256"
        }
      ],
      "stateMutability": "view",
      "type": "function"
    },
    {
      "inputs": [],
      "name": "getCantidadEventosActivos",
      "outputs": [
        {
          "internalType": "uint256",
          "name": "",
          "type": "uint256"
        }
      ],
      "stateMutability": "view",
      "type": "function"
    },
    {
      "inputs": [
        {
          "internalType": "uint256",
          "name": "evento_id",
          "type": "uint256"
        }
      ],
      "name": "getDescripcionDeEvento",
      "outputs": [
        {
          "internalType": "string",
          "name": "",
          "type": "string"
        }
      ],
      "stateMutability": "view",
      "type": "function"
    },
    {
      "inputs": [],
      "name": "getTodosLosEventos",
      "outputs": [
        {
          "components": [
            {
              "internalType": "uint256",
              "name": "identificadorEvento",
              "type": "uint256"
            },
            {
              "internalType": "address",
              "name": "organizador",
              "type": "address"
            },
            {
              "internalType": "string",
              "name": "nombreEvento",
              "type": "string"
            },
            {
              "internalType": "uint256",
              "name": "fechaEvento",
              "type": "uint256"
            },
            {
              "internalType": "uint256",
              "name": "ticketsDisponibles",
              "type": "uint256"
            },
            {
              "internalType": "uint256",
              "name": "precioBoleto",
              "type": "uint256"
            }
          ],
          "internalType": "struct eventos.Evento[]",
          "name": "",
          "type": "tuple[]"
        }
      ],
      "stateMutability": "view",
      "type": "function"
    }
  ],
  "bytecode": "0x608060405234801561001057600080fd5b50611e2d806100206000396000f3fe60806040526004361061009c5760003560e01c80637f30e11c116100645780637f30e11c1461019c578063cdab3012146101b8578063d25c7fdf146101e3578063d51da6d11461020e578063dc8d7c4d1461022a578063e749f75c146102675761009c565b806318db3db6146100a1578063301e4ab9146100cc5780635d9b5b11146100f757806361aa3836146101345780637b7b56bd1461015f575b600080fd5b3480156100ad57600080fd5b506100b6610292565b6040516100c3919061112f565b60405180910390f35b3480156100d857600080fd5b506100e16102ff565b6040516100ee9190611375565b60405180910390f35b34801561010357600080fd5b5061011e600480360381019061011991906113d7565b61059a565b60405161012b919061112f565b60405180910390f35b34801561014057600080fd5b50610149610693565b604051610156919061112f565b60405180910390f35b34801561016b57600080fd5b50610186600480360381019061018191906113d7565b6106a0565b604051610193919061112f565b60405180910390f35b6101b660048036038101906101b191906113d7565b6106cf565b005b3480156101c457600080fd5b506101cd6108a4565b6040516101da9190611375565b60405180910390f35b3480156101ef57600080fd5b506101f8610ac6565b604051610205919061112f565b60405180910390f35b61022860048036038101906102239190611539565b610b80565b005b34801561023657600080fd5b50610251600480360381019061024c91906113d7565b610cc2565b60405161025e9190611606565b60405180910390f35b34801561027357600080fd5b5061027c610d9c565b6040516102899190611375565b60405180910390f35b6000806000905060005b6001805490508110156102f75742600182815481106102be576102bd611628565b5b906000526020600020906006020160030154106102e45781806102e090611686565b9250505b80806102ef90611686565b91505061029c565b508091505090565b6060600061030b610ac6565b905060008167ffffffffffffffff8111156103295761032861140e565b5b60405190808252806020026020018201604052801561036257816020015b61034f611093565b8152602001906001900390816103475790505b5090506000805b600080549050811015610590573373ffffffffffffffffffffffffffffffffffffffff16600082815481106103a1576103a0611628565b5b906000526020600020906003020160020160009054906101000a900473ffffffffffffffffffffffffffffffffffffffff1673ffffffffffffffffffffffffffffffffffffffff160361057d5760016000828154811061040457610403611628565b5b9060005260206000209060030201600101548154811061042757610426611628565b5b90600052602060002090600602016040518060c0016040529081600082015481526020016001820160009054906101000a900473ffffffffffffffffffffffffffffffffffffffff1673ffffffffffffffffffffffffffffffffffffffff1673ffffffffffffffffffffffffffffffffffffffff1681526020016002820180546104b0906116fd565b80601f01602080910402602001604051908101604052809291908181526020018280546104dc906116fd565b80156105295780601f106104fe57610100808354040283529160200191610529565b820191906000526020600020905b81548152906001019060200180831161050c57829003601f168201915b50505050508152602001600382015481526020016004820154815260200160058201548152505083838151811061056357610562611628565b5b6020026020010181905250818061057990611686565b9250505b808061058890611686565b915050610369565b5081935050505090565b6000806000905060005b60008054905081101561067d573373ffffffffffffffffffffffffffffffffffffffff16600082815481106105dc576105db611628565b5b906000526020600020906003020160020160009054906101000a900473ffffffffffffffffffffffffffffffffffffffff1673ffffffffffffffffffffffffffffffffffffffff161480156106555750600081815481106106405761063f611628565b5b90600052602060002090600302016001015484145b1561066a57600182610667919061172e565b91505b808061067590611686565b9150506105a4565b5080600361068b9190611762565b915050919050565b6000600180549050905090565b6000600182815481106106b6576106b5611628565b5b9060005260206000209060060201600401549050919050565b348160006106db6108a4565b90506000805b825181101561072b57838382815181106106fe576106fd611628565b5b60200260200101516000015103610718576001915061072b565b808061072390611686565b9150506106e1565b50600181148015610744575060006107428461059a565b115b801561077557506001838154811061075f5761075e611628565b5b9060005260206000209060060201600501548410155b61077e57600080fd5b6107866110df565b6000805490508160000181815250508581602001818152505033816040019073ffffffffffffffffffffffffffffffffffffffff16908173ffffffffffffffffffffffffffffffffffffffff16815250506000819080600181540180825580915050600190039060005260206000209060030201600090919091909150600082015181600001556020820151816001015560408201518160020160006101000a81548173ffffffffffffffffffffffffffffffffffffffff021916908373ffffffffffffffffffffffffffffffffffffffff1602179055505050600180878154811061087557610874611628565b5b906000526020600020906006020160040160008282546108959190611762565b92505081905550505050505050565b6060600060018054905067ffffffffffffffff8111156108c7576108c661140e565b5b60405190808252806020026020018201604052801561090057816020015b6108ed611093565b8152602001906001900390816108e55790505b5090506000805b600180549050811015610abd57426001828154811061092957610928611628565b5b90600052602060002090600602016003015410610aaa576001818154811061095457610953611628565b5b90600052602060002090600602016040518060c0016040529081600082015481526020016001820160009054906101000a900473ffffffffffffffffffffffffffffffffffffffff1673ffffffffffffffffffffffffffffffffffffffff1673ffffffffffffffffffffffffffffffffffffffff1681526020016002820180546109dd906116fd565b80601f0160208091040260200160405190810160405280929190818152602001828054610a09906116fd565b8015610a565780601f10610a2b57610100808354040283529160200191610a56565b820191906000526020600020905b815481529060010190602001808311610a3957829003601f168201915b505050505081526020016003820154815260200160048201548152602001600582015481525050838381518110610a9057610a8f611628565b5b60200260200101819052508180610aa690611686565b9250505b8080610ab590611686565b915050610907565b50819250505090565b6000806000905060005b600080549050811015610b78573373ffffffffffffffffffffffffffffffffffffffff1660008281548110610b0857610b07611628565b5b906000526020600020906003020160020160009054906101000a900473ffffffffffffffffffffffffffffffffffffffff1673ffffffffffffffffffffffffffffffffffffffff1603610b6557600182610b62919061172e565b91505b8080610b7090611686565b915050610ad0565b508091505090565b34846000821015610b9057600080fd5b610b98611093565b60018054905081600001818152505033816020019073ffffffffffffffffffffffffffffffffffffffff16908173ffffffffffffffffffffffffffffffffffffffff16815250508581604001819052508481606001818152505086816080018181525050838160a001818152505060018190806001815401808255809150506001900390600052602060002090600602016000909190919091506000820151816000015560208201518160010160006101000a81548173ffffffffffffffffffffffffffffffffffffffff021916908373ffffffffffffffffffffffffffffffffffffffff1602179055506040820151816002019081610c989190611942565b50606082015181600301556080820151816004015560a08201518160050155505050505050505050565b606060018281548110610cd857610cd7611628565b5b9060005260206000209060060201600201610d1760018481548110610d0057610cff611628565b5b906000526020600020906006020160030154610f0b565b610d4560018581548110610d2e57610d2d611628565b5b906000526020600020906006020160040154610f0b565b610d7360018681548110610d5c57610d5b611628565b5b906000526020600020906006020160050154610f0b565b604051602001610d869493929190611c03565b6040516020818303038152906040529050919050565b60606001805480602002602001604051908101604052809291908181526020016000905b82821015610f0257838290600052602060002090600602016040518060c0016040529081600082015481526020016001820160009054906101000a900473ffffffffffffffffffffffffffffffffffffffff1673ffffffffffffffffffffffffffffffffffffffff1673ffffffffffffffffffffffffffffffffffffffff168152602001600282018054610e53906116fd565b80601f0160208091040260200160405190810160405280929190818152602001828054610e7f906116fd565b8015610ecc5780601f10610ea157610100808354040283529160200191610ecc565b820191906000526020600020905b815481529060010190602001808311610eaf57829003601f168201915b50505050508152602001600382015481526020016004820154815260200160058201548152505081526020019060010190610dc0565b50505050905090565b606060008203610f52576040518060400160405280600181526020017f3000000000000000000000000000000000000000000000000000000000000000815250905061108e565b600082905060005b60008214610f84578080610f6d90611686565b915050600a82610f7d9190611d42565b9150610f5a565b60008167ffffffffffffffff811115610fa057610f9f61140e565b5b6040519080825280601f01601f191660200182016040528015610fd25781602001600182028036833780820191505090505b50905060008290505b6000861461108657600181610ff09190611762565b90506000600a80886110029190611d42565b61100c9190611d73565b876110179190611762565b60306110239190611dc2565b905060008160f81b90508084848151811061104157611040611628565b5b60200101907effffffffffffffffffffffffffffffffffffffffffffffffffffffffffffff1916908160001a905350600a8861107d9190611d42565b97505050610fdb565b819450505050505b919050565b6040518060c0016040528060008152602001600073ffffffffffffffffffffffffffffffffffffffff168152602001606081526020016000815260200160008152602001600081525090565b60405180606001604052806000815260200160008152602001600073ffffffffffffffffffffffffffffffffffffffff1681525090565b6000819050919050565b61112981611116565b82525050565b60006020820190506111446000830184611120565b92915050565b600081519050919050565b600082825260208201905092915050565b6000819050602082019050919050565b61117f81611116565b82525050565b600073ffffffffffffffffffffffffffffffffffffffff82169050919050565b60006111b082611185565b9050919050565b6111c0816111a5565b82525050565b600081519050919050565b600082825260208201905092915050565b60005b838110156112005780820151818401526020810190506111e5565b60008484015250505050565b6000601f19601f8301169050919050565b6000611228826111c6565b61123281856111d1565b93506112428185602086016111e2565b61124b8161120c565b840191505092915050565b600060c08301600083015161126e6000860182611176565b50602083015161128160208601826111b7565b5060408301518482036040860152611299828261121d565b91505060608301516112ae6060860182611176565b5060808301516112c16080860182611176565b5060a08301516112d460a0860182611176565b508091505092915050565b60006112eb8383611256565b905092915050565b6000602082019050919050565b600061130b8261114a565b6113158185611155565b93508360208202850161132785611166565b8060005b85811015611363578484038952815161134485826112df565b945061134f836112f3565b925060208a0199505060018101905061132b565b50829750879550505050505092915050565b6000602082019050818103600083015261138f8184611300565b905092915050565b6000604051905090565b600080fd5b600080fd5b6113b481611116565b81146113bf57600080fd5b50565b6000813590506113d1816113ab565b92915050565b6000602082840312156113ed576113ec6113a1565b5b60006113fb848285016113c2565b91505092915050565b600080fd5b600080fd5b7f4e487b7100000000000000000000000000000000000000000000000000000000600052604160045260246000fd5b6114468261120c565b810181811067ffffffffffffffff821117156114655761146461140e565b5b80604052505050565b6000611478611397565b9050611484828261143d565b919050565b600067ffffffffffffffff8211156114a4576114a361140e565b5b6114ad8261120c565b9050602081019050919050565b82818337600083830152505050565b60006114dc6114d784611489565b61146e565b9050828152602081018484840111156114f8576114f7611409565b5b6115038482856114ba565b509392505050565b600082601f8301126115205761151f611404565b5b81356115308482602086016114c9565b91505092915050565b60008060008060808587031215611553576115526113a1565b5b6000611561878288016113c2565b945050602085013567ffffffffffffffff811115611582576115816113a6565b5b61158e8782880161150b565b935050604061159f878288016113c2565b92505060606115b0878288016113c2565b91505092959194509250565b600082825260208201905092915050565b60006115d8826111c6565b6115e281856115bc565b93506115f28185602086016111e2565b6115fb8161120c565b840191505092915050565b6000602082019050818103600083015261162081846115cd565b905092915050565b7f4e487b7100000000000000000000000000000000000000000000000000000000600052603260045260246000fd5b7f4e487b7100000000000000000000000000000000000000000000000000000000600052601160045260246000fd5b600061169182611116565b91507fffffffffffffffffffffffffffffffffffffffffffffffffffffffffffffffff82036116c3576116c2611657565b5b600182019050919050565b7f4e487b7100000000000000000000000000000000000000000000000000000000600052602260045260246000fd5b6000600282049050600182168061171557607f821691505b602082108103611728576117276116ce565b5b50919050565b600061173982611116565b915061174483611116565b925082820190508082111561175c5761175b611657565b5b92915050565b600061176d82611116565b915061177883611116565b92508282039050818111156117905761178f611657565b5b92915050565b60008190508160005260206000209050919050565b60006020601f8301049050919050565b600082821b905092915050565b6000600883026117f87fffffffffffffffffffffffffffffffffffffffffffffffffffffffffffffffff826117bb565b61180286836117bb565b95508019841693508086168417925050509392505050565b6000819050919050565b600061183f61183a61183584611116565b61181a565b611116565b9050919050565b6000819050919050565b61185983611824565b61186d61186582611846565b8484546117c8565b825550505050565b600090565b611882611875565b61188d818484611850565b505050565b5b818110156118b1576118a660008261187a565b600181019050611893565b5050565b601f8211156118f6576118c781611796565b6118d0846117ab565b810160208510156118df578190505b6118f36118eb856117ab565b830182611892565b50505b505050565b600082821c905092915050565b6000611919600019846008026118fb565b1980831691505092915050565b60006119328383611908565b9150826002028217905092915050565b61194b826111c6565b67ffffffffffffffff8111156119645761196361140e565b5b61196e82546116fd565b6119798282856118b5565b600060209050601f8311600181146119ac576000841561199a578287015190505b6119a48582611926565b865550611a0c565b601f1984166119ba86611796565b60005b828110156119e2578489015182556001820191506020850194506020810190506119bd565b868310156119ff57848901516119fb601f891682611908565b8355505b6001600288020188555050505b505050505050565b7f7b00000000000000000000000000000000000000000000000000000000000000815250565b7f276e6f6d6272654576656e746f273a2000000000000000000000000000000000815250565b7f2027000000000000000000000000000000000000000000000000000000000000815250565b600081905092915050565b60008154611a9e816116fd565b611aa88186611a86565b94506001821660008114611ac35760018114611ad857611b0b565b60ff1983168652811515820286019350611b0b565b611ae185611796565b60005b83811015611b0357815481890152600182019150602081019050611ae4565b838801955050505b50505092915050565b7f272c000000000000000000000000000000000000000000000000000000000000815250565b7f2766656368614576656e746f273a200000000000000000000000000000000000815250565b6000611b6b826111c6565b611b758185611a86565b9350611b858185602086016111e2565b80840191505092915050565b7f277469636b657473446973706f6e69626c6573273a2000000000000000000000815250565b7f2770726563696f426f6c65746f273a2000000000000000000000000000000000815250565b7f7d00000000000000000000000000000000000000000000000000000000000000815250565b6000611c0e82611a14565b600182019150611c1d82611a3a565b601082019150611c2c82611a60565b600282019150611c3c8287611a91565b9150611c4782611b14565b600282019150611c5682611b3a565b600f82019150611c6582611a60565b600282019150611c758286611b60565b9150611c8082611b14565b600282019150611c8f82611b91565b601682019150611c9e82611a60565b600282019150611cae8285611b60565b9150611cb982611b14565b600282019150611cc882611bb7565b601082019150611cd782611a60565b600282019150611ce78284611b60565b9150611cf282611b14565b600282019150611d0182611bdd565b60018201915081905095945050505050565b7f4e487b7100000000000000000000000000000000000000000000000000000000600052601260045260246000fd5b6000611d4d82611116565b9150611d5883611116565b925082611d6857611d67611d13565b5b828204905092915050565b6000611d7e82611116565b9150611d8983611116565b9250828202611d9781611116565b91508282048414831517611dae57611dad611657565b5b5092915050565b600060ff82169050919050565b6000611dcd82611db5565b9150611dd883611db5565b9250828201905060ff811115611df157611df0611657565b5b9291505056fea26469706673582212202d3a8a132c6a22093eab32767a65c7bc94070bb814bdfa7a4e057dd2f4fb0a4764736f6c63430008110033",
  "linkReferences": {},
  "deployedLinkReferences": {}
}