{
  "_format": "hh-sol-artifact-1",
  "contractName": "eventos",
  "sourceName": "contracts/eventos.sol",
  "abi": [
    {
      "inputs": [
        {
          "internalType": "uint256",
          "name": "id_evento",
          "type": "uint256"
        }
      ],
      "name": "comprarBoleto",
      "outputs": [],
      "stateMutability": "payable",
      "type": "function"
    },
    {
      "inputs": [
        {
          "internalType": "uint32",
          "name": "boletosACrear",
          "type": "uint32"
        },
        {
          "internalType": "string",
          "name": "nombreEvento",
          "type": "string"
        },
        {
          "internalType": "uint256",
          "name": "fechaEvento",
          "type": "uint256"
        },
        {
          "internalType": "uint32",
          "name": "precioBoleto",
          "type": "uint32"
        }
      ],
      "name": "crearEvento",
      "outputs": [],
      "stateMutability": "payable",
      "type": "function"
    },
    {
      "inputs": [],
      "name": "geEventosActivos",
      "outputs": [
        {
          "components": [
            {
              "internalType": "uint256",
              "name": "identificadorEvento",
              "type": "uint256"
            },
            {
              "internalType": "address",
              "name": "organizador",
              "type": "address"
            },
            {
              "internalType": "string",
              "name": "nombreEvento",
              "type": "string"
            },
            {
              "internalType": "uint256",
              "name": "fechaEvento",
              "type": "uint256"
            },
            {
              "internalType": "uint32",
              "name": "ticketsDisponibles",
              "type": "uint32"
            },
            {
              "internalType": "uint32",
              "name": "precioBoleto",
              "type": "uint32"
            }
          ],
          "internalType": "struct eventos.Evento[]",
          "name": "",
          "type": "tuple[]"
        }
      ],
      "stateMutability": "view",
      "type": "function"
    },
    {
      "inputs": [],
      "name": "getBoletosCompradosPorUsuario",
      "outputs": [
        {
          "components": [
            {
              "internalType": "uint256",
              "name": "identificadorEvento",
              "type": "uint256"
            },
            {
              "internalType": "address",
              "name": "organizador",
              "type": "address"
            },
            {
              "internalType": "string",
              "name": "nombreEvento",
              "type": "string"
            },
            {
              "internalType": "uint256",
              "name": "fechaEvento",
              "type": "uint256"
            },
            {
              "internalType": "uint32",
              "name": "ticketsDisponibles",
              "type": "uint32"
            },
            {
              "internalType": "uint32",
              "name": "precioBoleto",
              "type": "uint32"
            }
          ],
          "internalType": "struct eventos.Evento[]",
          "name": "",
          "type": "tuple[]"
        }
      ],
      "stateMutability": "view",
      "type": "function"
    },
    {
      "inputs": [],
      "name": "getBoletosCompradosPorUsuarioContador",
      "outputs": [
        {
          "internalType": "uint256",
          "name": "",
          "type": "uint256"
        }
      ],
      "stateMutability": "view",
      "type": "function"
    },
    {
      "inputs": [
        {
          "internalType": "uint256",
          "name": "id_evento",
          "type": "uint256"
        }
      ],
      "name": "getBoletosRestantesDelEvento",
      "outputs": [
        {
          "internalType": "uint32",
          "name": "",
          "type": "uint32"
        }
      ],
      "stateMutability": "view",
      "type": "function"
    },
    {
      "inputs": [
        {
          "internalType": "uint256",
          "name": "id_evento",
          "type": "uint256"
        }
      ],
      "name": "getBoletosRestantesPorUsuario",
      "outputs": [
        {
          "internalType": "uint256",
          "name": "",
          "type": "uint256"
        }
      ],
      "stateMutability": "view",
      "type": "function"
    },
    {
      "inputs": [],
      "name": "getCantidadEventos",
      "outputs": [
        {
          "internalType": "uint256",
          "name": "",
          "type": "uint256"
        }
      ],
      "stateMutability": "view",
      "type": "function"
    },
    {
      "inputs": [],
      "name": "getCantidadEventosActivos",
      "outputs": [
        {
          "internalType": "uint256",
          "name": "",
          "type": "uint256"
        }
      ],
      "stateMutability": "view",
      "type": "function"
    },
    {
      "inputs": [
        {
          "internalType": "uint256",
          "name": "evento_id",
          "type": "uint256"
        }
      ],
      "name": "getDescripcionDeEvento",
      "outputs": [
        {
          "internalType": "string",
          "name": "",
          "type": "string"
        }
      ],
      "stateMutability": "view",
      "type": "function"
    },
    {
      "inputs": [],
      "name": "getTodosLosEventos",
      "outputs": [
        {
          "components": [
            {
              "internalType": "uint256",
              "name": "identificadorEvento",
              "type": "uint256"
            },
            {
              "internalType": "address",
              "name": "organizador",
              "type": "address"
            },
            {
              "internalType": "string",
              "name": "nombreEvento",
              "type": "string"
            },
            {
              "internalType": "uint256",
              "name": "fechaEvento",
              "type": "uint256"
            },
            {
              "internalType": "uint32",
              "name": "ticketsDisponibles",
              "type": "uint32"
            },
            {
              "internalType": "uint32",
              "name": "precioBoleto",
              "type": "uint32"
            }
          ],
          "internalType": "struct eventos.Evento[]",
          "name": "",
          "type": "tuple[]"
        }
      ],
      "stateMutability": "view",
      "type": "function"
    }
  ],
  "bytecode": "0x608060405234801561001057600080fd5b506120c7806100206000396000f3fe60806040526004361061009c5760003560e01c80637b7b56bd116100645780637b7b56bd1461017b5780637f30e11c146101b8578063cdab3012146101d4578063d25c7fdf146101ff578063dc8d7c4d1461022a578063e749f75c146102675761009c565b806318db3db6146100a1578063301e4ab9146100cc57806330e59be5146100f75780635d9b5b111461011357806361aa383614610150575b600080fd5b3480156100ad57600080fd5b506100b6610292565b6040516100c391906112ec565b60405180910390f35b3480156100d857600080fd5b506100e161030b565b6040516100ee9190611551565b60405180910390f35b610111600480360381019061010c9190611714565b6105e4565b005b34801561011f57600080fd5b5061013a60048036038101906101359190611797565b610781565b60405161014791906112ec565b60405180910390f35b34801561015c57600080fd5b50610165610880565b60405161017291906112ec565b60405180910390f35b34801561018757600080fd5b506101a2600480360381019061019d9190611797565b61088d565b6040516101af91906117d3565b60405180910390f35b6101d260048036038101906101cd9190611797565b6108cc565b005b3480156101e057600080fd5b506101e9610ae3565b6040516101f69190611551565b60405180910390f35b34801561020b57600080fd5b50610214610d4f565b60405161022191906112ec565b60405180910390f35b34801561023657600080fd5b50610251600480360381019061024c9190611797565b610e0f565b60405161025e9190611838565b60405180910390f35b34801561027357600080fd5b5061027c610f15565b6040516102899190611551565b60405180910390f35b6000806000905060005b6001805490508163ffffffff161015610303574260018263ffffffff16815481106102ca576102c961185a565b5b906000526020600020906005020160030154106102f05781806102ec906118b8565b9250505b80806102fb90611900565b91505061029c565b508091505090565b60606000610317610d4f565b905060008167ffffffffffffffff811115610335576103346115bd565b5b60405190808252806020026020018201604052801561036e57816020015b61035b611244565b8152602001906001900390816103535790505b5090506000805b6000805490508110156105da573373ffffffffffffffffffffffffffffffffffffffff16600082815481106103ad576103ac61185a565b5b906000526020600020906003020160020160009054906101000a900473ffffffffffffffffffffffffffffffffffffffff1673ffffffffffffffffffffffffffffffffffffffff16036105c7576001600082815481106104105761040f61185a565b5b906000526020600020906003020160010154815481106104335761043261185a565b5b90600052602060002090600502016040518060c0016040529081600082015481526020016001820160009054906101000a900473ffffffffffffffffffffffffffffffffffffffff1673ffffffffffffffffffffffffffffffffffffffff1673ffffffffffffffffffffffffffffffffffffffff1681526020016002820180546104bc9061195b565b80601f01602080910402602001604051908101604052809291908181526020018280546104e89061195b565b80156105355780601f1061050a57610100808354040283529160200191610535565b820191906000526020600020905b81548152906001019060200180831161051857829003601f168201915b50505050508152602001600382015481526020016004820160009054906101000a900463ffffffff1663ffffffff1663ffffffff1681526020016004820160049054906101000a900463ffffffff1663ffffffff1663ffffffff1681525050838363ffffffff16815181106105ad576105ac61185a565b5b602002602001018190525081806105c390611900565b9250505b80806105d2906118b8565b915050610375565b5081935050505090565b348463ffffffff16808210156105f957600080fd5b610601611244565b60018054905081600001818152505033816020019073ffffffffffffffffffffffffffffffffffffffff16908173ffffffffffffffffffffffffffffffffffffffff16815250508581604001819052508481606001818152505086816080019063ffffffff16908163ffffffff1681525050838160a0019063ffffffff16908163ffffffff168152505060018190806001815401808255809150506001900390600052602060002090600502016000909190919091506000820151816000015560208201518160010160006101000a81548173ffffffffffffffffffffffffffffffffffffffff021916908373ffffffffffffffffffffffffffffffffffffffff160217905550604082015181600201908161071d9190611b38565b506060820151816003015560808201518160040160006101000a81548163ffffffff021916908363ffffffff16021790555060a08201518160040160046101000a81548163ffffffff021916908363ffffffff160217905550505050505050505050565b6000806000905060005b600080549050811015610864573373ffffffffffffffffffffffffffffffffffffffff16600082815481106107c3576107c261185a565b5b906000526020600020906003020160020160009054906101000a900473ffffffffffffffffffffffffffffffffffffffff1673ffffffffffffffffffffffffffffffffffffffff1614801561083c5750600081815481106108275761082661185a565b5b90600052602060002090600302016001015484145b156108515760018261084e9190611c0a565b91505b808061085c906118b8565b91505061078b565b508060036108729190611c42565b63ffffffff16915050919050565b6000600180549050905090565b6000600182815481106108a3576108a261185a565b5b906000526020600020906005020160040160009054906101000a900463ffffffff169050919050565b348160006108d8610ae3565b90506000805b825181101561092857838382815181106108fb576108fa61185a565b5b602002602001015160000151036109155760019150610928565b8080610920906118b8565b9150506108de565b5060018163ffffffff161480156109475750600061094584610781565b115b801561098e5750600183815481106109625761096161185a565b5b906000526020600020906005020160040160049054906101000a900463ffffffff1663ffffffff168410155b61099757600080fd5b61099f61129c565b6000805490508160000181815250508581602001818152505033816040019073ffffffffffffffffffffffffffffffffffffffff16908173ffffffffffffffffffffffffffffffffffffffff16815250506000819080600181540180825580915050600190039060005260206000209060030201600090919091909150600082015181600001556020820151816001015560408201518160020160006101000a81548173ffffffffffffffffffffffffffffffffffffffff021916908373ffffffffffffffffffffffffffffffffffffffff16021790555050506001808781548110610a8e57610a8d61185a565b5b906000526020600020906005020160040160008282829054906101000a900463ffffffff16610abd9190611c42565b92506101000a81548163ffffffff021916908363ffffffff160217905550505050505050565b6060600060018054905067ffffffffffffffff811115610b0657610b056115bd565b5b604051908082528060200260200182016040528015610b3f57816020015b610b2c611244565b815260200190600190039081610b245790505b5090506000805b6001805490508163ffffffff161015610d46574260018263ffffffff1681548110610b7457610b7361185a565b5b90600052602060002090600502016003015410610d335760018163ffffffff1681548110610ba557610ba461185a565b5b90600052602060002090600502016040518060c0016040529081600082015481526020016001820160009054906101000a900473ffffffffffffffffffffffffffffffffffffffff1673ffffffffffffffffffffffffffffffffffffffff1673ffffffffffffffffffffffffffffffffffffffff168152602001600282018054610c2e9061195b565b80601f0160208091040260200160405190810160405280929190818152602001828054610c5a9061195b565b8015610ca75780601f10610c7c57610100808354040283529160200191610ca7565b820191906000526020600020905b815481529060010190602001808311610c8a57829003601f168201915b50505050508152602001600382015481526020016004820160009054906101000a900463ffffffff1663ffffffff1663ffffffff1681526020016004820160049054906101000a900463ffffffff1663ffffffff1663ffffffff1681525050838381518110610d1957610d1861185a565b5b60200260200101819052508180610d2f906118b8565b9250505b8080610d3e90611900565b915050610b46565b50819250505090565b6000806000905060005b600080549050811015610e01573373ffffffffffffffffffffffffffffffffffffffff1660008281548110610d9157610d9061185a565b5b906000526020600020906003020160020160009054906101000a900473ffffffffffffffffffffffffffffffffffffffff1673ffffffffffffffffffffffffffffffffffffffff1603610dee57600182610deb9190611c0a565b91505b8080610df9906118b8565b915050610d59565b508063ffffffff1691505090565b606060018281548110610e2557610e2461185a565b5b9060005260206000209060050201600201610e6460018481548110610e4d57610e4c61185a565b5b9060005260206000209060050201600301546110bc565b610ea860018581548110610e7b57610e7a61185a565b5b906000526020600020906005020160040160009054906101000a900463ffffffff1663ffffffff166110bc565b610eec60018681548110610ebf57610ebe61185a565b5b906000526020600020906005020160040160049054906101000a900463ffffffff1663ffffffff166110bc565b604051602001610eff9493929190611e69565b6040516020818303038152906040529050919050565b60606001805480602002602001604051908101604052809291908181526020016000905b828210156110b357838290600052602060002090600502016040518060c0016040529081600082015481526020016001820160009054906101000a900473ffffffffffffffffffffffffffffffffffffffff1673ffffffffffffffffffffffffffffffffffffffff1673ffffffffffffffffffffffffffffffffffffffff168152602001600282018054610fcc9061195b565b80601f0160208091040260200160405190810160405280929190818152602001828054610ff89061195b565b80156110455780601f1061101a57610100808354040283529160200191611045565b820191906000526020600020905b81548152906001019060200180831161102857829003601f168201915b50505050508152602001600382015481526020016004820160009054906101000a900463ffffffff1663ffffffff1663ffffffff1681526020016004820160049054906101000a900463ffffffff1663ffffffff1663ffffffff168152505081526020019060010190610f39565b50505050905090565b606060008203611103576040518060400160405280600181526020017f3000000000000000000000000000000000000000000000000000000000000000815250905061123f565b600082905060005b6000821461113557808061111e906118b8565b915050600a8261112e9190611fa8565b915061110b565b60008167ffffffffffffffff811115611151576111506115bd565b5b6040519080825280601f01601f1916602001820160405280156111835781602001600182028036833780820191505090505b50905060008290505b60008614611237576001816111a19190611fd9565b90506000600a80886111b39190611fa8565b6111bd919061200d565b876111c89190611fd9565b60306111d4919061205c565b905060008160f81b9050808484815181106111f2576111f161185a565b5b60200101907effffffffffffffffffffffffffffffffffffffffffffffffffffffffffffff1916908160001a905350600a8861122e9190611fa8565b9750505061118c565b819450505050505b919050565b6040518060c0016040528060008152602001600073ffffffffffffffffffffffffffffffffffffffff1681526020016060815260200160008152602001600063ffffffff168152602001600063ffffffff1681525090565b60405180606001604052806000815260200160008152602001600073ffffffffffffffffffffffffffffffffffffffff1681525090565b6000819050919050565b6112e6816112d3565b82525050565b600060208201905061130160008301846112dd565b92915050565b600081519050919050565b600082825260208201905092915050565b6000819050602082019050919050565b61133c816112d3565b82525050565b600073ffffffffffffffffffffffffffffffffffffffff82169050919050565b600061136d82611342565b9050919050565b61137d81611362565b82525050565b600081519050919050565b600082825260208201905092915050565b60005b838110156113bd5780820151818401526020810190506113a2565b60008484015250505050565b6000601f19601f8301169050919050565b60006113e582611383565b6113ef818561138e565b93506113ff81856020860161139f565b611408816113c9565b840191505092915050565b600063ffffffff82169050919050565b61142c81611413565b82525050565b600060c08301600083015161144a6000860182611333565b50602083015161145d6020860182611374565b506040830151848203604086015261147582826113da565b915050606083015161148a6060860182611333565b50608083015161149d6080860182611423565b5060a08301516114b060a0860182611423565b508091505092915050565b60006114c78383611432565b905092915050565b6000602082019050919050565b60006114e782611307565b6114f18185611312565b93508360208202850161150385611323565b8060005b8581101561153f578484038952815161152085826114bb565b945061152b836114cf565b925060208a01995050600181019050611507565b50829750879550505050505092915050565b6000602082019050818103600083015261156b81846114dc565b905092915050565b6000604051905090565b600080fd5b600080fd5b61159081611413565b811461159b57600080fd5b50565b6000813590506115ad81611587565b92915050565b600080fd5b600080fd5b7f4e487b7100000000000000000000000000000000000000000000000000000000600052604160045260246000fd5b6115f5826113c9565b810181811067ffffffffffffffff82111715611614576116136115bd565b5b80604052505050565b6000611627611573565b905061163382826115ec565b919050565b600067ffffffffffffffff821115611653576116526115bd565b5b61165c826113c9565b9050602081019050919050565b82818337600083830152505050565b600061168b61168684611638565b61161d565b9050828152602081018484840111156116a7576116a66115b8565b5b6116b2848285611669565b509392505050565b600082601f8301126116cf576116ce6115b3565b5b81356116df848260208601611678565b91505092915050565b6116f1816112d3565b81146116fc57600080fd5b50565b60008135905061170e816116e8565b92915050565b6000806000806080858703121561172e5761172d61157d565b5b600061173c8782880161159e565b945050602085013567ffffffffffffffff81111561175d5761175c611582565b5b611769878288016116ba565b935050604061177a878288016116ff565b925050606061178b8782880161159e565b91505092959194509250565b6000602082840312156117ad576117ac61157d565b5b60006117bb848285016116ff565b91505092915050565b6117cd81611413565b82525050565b60006020820190506117e860008301846117c4565b92915050565b600082825260208201905092915050565b600061180a82611383565b61181481856117ee565b935061182481856020860161139f565b61182d816113c9565b840191505092915050565b6000602082019050818103600083015261185281846117ff565b905092915050565b7f4e487b7100000000000000000000000000000000000000000000000000000000600052603260045260246000fd5b7f4e487b7100000000000000000000000000000000000000000000000000000000600052601160045260246000fd5b60006118c3826112d3565b91507fffffffffffffffffffffffffffffffffffffffffffffffffffffffffffffffff82036118f5576118f4611889565b5b600182019050919050565b600061190b82611413565b915063ffffffff820361192157611920611889565b5b600182019050919050565b7f4e487b7100000000000000000000000000000000000000000000000000000000600052602260045260246000fd5b6000600282049050600182168061197357607f821691505b6020821081036119865761198561192c565b5b50919050565b60008190508160005260206000209050919050565b60006020601f8301049050919050565b600082821b905092915050565b6000600883026119ee7fffffffffffffffffffffffffffffffffffffffffffffffffffffffffffffffff826119b1565b6119f886836119b1565b95508019841693508086168417925050509392505050565b6000819050919050565b6000611a35611a30611a2b846112d3565b611a10565b6112d3565b9050919050565b6000819050919050565b611a4f83611a1a565b611a63611a5b82611a3c565b8484546119be565b825550505050565b600090565b611a78611a6b565b611a83818484611a46565b505050565b5b81811015611aa757611a9c600082611a70565b600181019050611a89565b5050565b601f821115611aec57611abd8161198c565b611ac6846119a1565b81016020851015611ad5578190505b611ae9611ae1856119a1565b830182611a88565b50505b505050565b600082821c905092915050565b6000611b0f60001984600802611af1565b1980831691505092915050565b6000611b288383611afe565b9150826002028217905092915050565b611b4182611383565b67ffffffffffffffff811115611b5a57611b596115bd565b5b611b64825461195b565b611b6f828285611aab565b600060209050601f831160018114611ba25760008415611b90578287015190505b611b9a8582611b1c565b865550611c02565b601f198416611bb08661198c565b60005b82811015611bd857848901518255600182019150602085019450602081019050611bb3565b86831015611bf55784890151611bf1601f891682611afe565b8355505b6001600288020188555050505b505050505050565b6000611c1582611413565b9150611c2083611413565b9250828201905063ffffffff811115611c3c57611c3b611889565b5b92915050565b6000611c4d82611413565b9150611c5883611413565b9250828203905063ffffffff811115611c7457611c73611889565b5b92915050565b7f7b00000000000000000000000000000000000000000000000000000000000000815250565b7f276e6f6d6272654576656e746f273a2000000000000000000000000000000000815250565b7f2027000000000000000000000000000000000000000000000000000000000000815250565b600081905092915050565b60008154611d048161195b565b611d0e8186611cec565b94506001821660008114611d295760018114611d3e57611d71565b60ff1983168652811515820286019350611d71565b611d478561198c565b60005b83811015611d6957815481890152600182019150602081019050611d4a565b838801955050505b50505092915050565b7f272c000000000000000000000000000000000000000000000000000000000000815250565b7f2766656368614576656e746f273a200000000000000000000000000000000000815250565b6000611dd182611383565b611ddb8185611cec565b9350611deb81856020860161139f565b80840191505092915050565b7f277469636b657473446973706f6e69626c6573273a2000000000000000000000815250565b7f2770726563696f426f6c65746f273a2000000000000000000000000000000000815250565b7f7d00000000000000000000000000000000000000000000000000000000000000815250565b6000611e7482611c7a565b600182019150611e8382611ca0565b601082019150611e9282611cc6565b600282019150611ea28287611cf7565b9150611ead82611d7a565b600282019150611ebc82611da0565b600f82019150611ecb82611cc6565b600282019150611edb8286611dc6565b9150611ee682611d7a565b600282019150611ef582611df7565b601682019150611f0482611cc6565b600282019150611f148285611dc6565b9150611f1f82611d7a565b600282019150611f2e82611e1d565b601082019150611f3d82611cc6565b600282019150611f4d8284611dc6565b9150611f5882611d7a565b600282019150611f6782611e43565b60018201915081905095945050505050565b7f4e487b7100000000000000000000000000000000000000000000000000000000600052601260045260246000fd5b6000611fb3826112d3565b9150611fbe836112d3565b925082611fce57611fcd611f79565b5b828204905092915050565b6000611fe4826112d3565b9150611fef836112d3565b925082820390508181111561200757612006611889565b5b92915050565b6000612018826112d3565b9150612023836112d3565b9250828202612031816112d3565b9150828204841483151761204857612047611889565b5b5092915050565b600060ff82169050919050565b60006120678261204f565b91506120728361204f565b9250828201905060ff81111561208b5761208a611889565b5b9291505056fea2646970667358221220a73c82db70d3838716232a0b9b746fd29a247768a6bdcb6b6812f410068a0d3864736f6c63430008110033",
  "linkReferences": {},
  "deployedLinkReferences": {}
}